{
  "address": "0xb21ab0c7E4E23FEEeBA83a2B4fB5ECe69EbF6cA1",
  "abi": [
    {
      "inputs": [
        {
          "internalType": "address",
          "name": "priceFeedAddress",
          "type": "address"
        },
        {
          "internalType": "string",
          "name": "_lowSvg",
          "type": "string"
        },
        {
          "internalType": "string",
          "name": "_highSvg",
          "type": "string"
        }
      ],
      "stateMutability": "nonpayable",
      "type": "constructor"
    },
    {
      "inputs": [],
      "name": "ERC721Metadata__URI_QueryFor_NonExistentToken",
      "type": "error"
    },
    {
      "anonymous": false,
      "inputs": [
        {
          "indexed": true,
          "internalType": "address",
          "name": "owner",
          "type": "address"
        },
        {
          "indexed": true,
          "internalType": "address",
          "name": "approved",
          "type": "address"
        },
        {
          "indexed": true,
          "internalType": "uint256",
          "name": "tokenId",
          "type": "uint256"
        }
      ],
      "name": "Approval",
      "type": "event"
    },
    {
      "anonymous": false,
      "inputs": [
        {
          "indexed": true,
          "internalType": "address",
          "name": "owner",
          "type": "address"
        },
        {
          "indexed": true,
          "internalType": "address",
          "name": "operator",
          "type": "address"
        },
        {
          "indexed": false,
          "internalType": "bool",
          "name": "approved",
          "type": "bool"
        }
      ],
      "name": "ApprovalForAll",
      "type": "event"
    },
    {
      "anonymous": false,
      "inputs": [
        {
          "indexed": true,
          "internalType": "uint256",
          "name": "tokenId",
          "type": "uint256"
        },
        {
          "indexed": false,
          "internalType": "int256",
          "name": "value",
          "type": "int256"
        }
      ],
      "name": "CreateNft",
      "type": "event"
    },
    {
      "anonymous": false,
      "inputs": [
        {
          "indexed": true,
          "internalType": "address",
          "name": "from",
          "type": "address"
        },
        {
          "indexed": true,
          "internalType": "address",
          "name": "to",
          "type": "address"
        },
        {
          "indexed": true,
          "internalType": "uint256",
          "name": "tokenId",
          "type": "uint256"
        }
      ],
      "name": "Transfer",
      "type": "event"
    },
    {
      "inputs": [
        {
          "internalType": "address",
          "name": "to",
          "type": "address"
        },
        {
          "internalType": "uint256",
          "name": "tokenId",
          "type": "uint256"
        }
      ],
      "name": "approve",
      "outputs": [],
      "stateMutability": "nonpayable",
      "type": "function"
    },
    {
      "inputs": [
        {
          "internalType": "address",
          "name": "owner",
          "type": "address"
        }
      ],
      "name": "balanceOf",
      "outputs": [
        {
          "internalType": "uint256",
          "name": "",
          "type": "uint256"
        }
      ],
      "stateMutability": "view",
      "type": "function"
    },
    {
      "inputs": [
        {
          "internalType": "uint256",
          "name": "tokenId",
          "type": "uint256"
        }
      ],
      "name": "getApproved",
      "outputs": [
        {
          "internalType": "address",
          "name": "",
          "type": "address"
        }
      ],
      "stateMutability": "view",
      "type": "function"
    },
    {
      "inputs": [],
      "name": "highSvg",
      "outputs": [
        {
          "internalType": "string",
          "name": "",
          "type": "string"
        }
      ],
      "stateMutability": "view",
      "type": "function"
    },
    {
      "inputs": [
        {
          "internalType": "address",
          "name": "owner",
          "type": "address"
        },
        {
          "internalType": "address",
          "name": "operator",
          "type": "address"
        }
      ],
      "name": "isApprovedForAll",
      "outputs": [
        {
          "internalType": "bool",
          "name": "",
          "type": "bool"
        }
      ],
      "stateMutability": "view",
      "type": "function"
    },
    {
      "inputs": [],
      "name": "lowSvg",
      "outputs": [
        {
          "internalType": "string",
          "name": "",
          "type": "string"
        }
      ],
      "stateMutability": "view",
      "type": "function"
    },
    {
      "inputs": [
        {
          "internalType": "int256",
          "name": "value",
          "type": "int256"
        }
      ],
      "name": "mintNft",
      "outputs": [],
      "stateMutability": "nonpayable",
      "type": "function"
    },
    {
      "inputs": [],
      "name": "name",
      "outputs": [
        {
          "internalType": "string",
          "name": "",
          "type": "string"
        }
      ],
      "stateMutability": "view",
      "type": "function"
    },
    {
      "inputs": [
        {
          "internalType": "uint256",
          "name": "tokenId",
          "type": "uint256"
        }
      ],
      "name": "ownerOf",
      "outputs": [
        {
          "internalType": "address",
          "name": "",
          "type": "address"
        }
      ],
      "stateMutability": "view",
      "type": "function"
    },
    {
      "inputs": [],
      "name": "priceFeed",
      "outputs": [
        {
          "internalType": "contract AggregatorV3Interface",
          "name": "",
          "type": "address"
        }
      ],
      "stateMutability": "view",
      "type": "function"
    },
    {
      "inputs": [
        {
          "internalType": "address",
          "name": "from",
          "type": "address"
        },
        {
          "internalType": "address",
          "name": "to",
          "type": "address"
        },
        {
          "internalType": "uint256",
          "name": "tokenId",
          "type": "uint256"
        }
      ],
      "name": "safeTransferFrom",
      "outputs": [],
      "stateMutability": "nonpayable",
      "type": "function"
    },
    {
      "inputs": [
        {
          "internalType": "address",
          "name": "from",
          "type": "address"
        },
        {
          "internalType": "address",
          "name": "to",
          "type": "address"
        },
        {
          "internalType": "uint256",
          "name": "tokenId",
          "type": "uint256"
        },
        {
          "internalType": "bytes",
          "name": "data",
          "type": "bytes"
        }
      ],
      "name": "safeTransferFrom",
      "outputs": [],
      "stateMutability": "nonpayable",
      "type": "function"
    },
    {
      "inputs": [
        {
          "internalType": "address",
          "name": "operator",
          "type": "address"
        },
        {
          "internalType": "bool",
          "name": "approved",
          "type": "bool"
        }
      ],
      "name": "setApprovalForAll",
      "outputs": [],
      "stateMutability": "nonpayable",
      "type": "function"
    },
    {
      "inputs": [
        {
          "internalType": "bytes4",
          "name": "interfaceId",
          "type": "bytes4"
        }
      ],
      "name": "supportsInterface",
      "outputs": [
        {
          "internalType": "bool",
          "name": "",
          "type": "bool"
        }
      ],
      "stateMutability": "view",
      "type": "function"
    },
    {
      "inputs": [
        {
          "internalType": "string",
          "name": "svg",
          "type": "string"
        }
      ],
      "name": "svgToImageUri",
      "outputs": [
        {
          "internalType": "string",
          "name": "",
          "type": "string"
        }
      ],
      "stateMutability": "pure",
      "type": "function"
    },
    {
      "inputs": [],
      "name": "symbol",
      "outputs": [
        {
          "internalType": "string",
          "name": "",
          "type": "string"
        }
      ],
      "stateMutability": "view",
      "type": "function"
    },
    {
      "inputs": [],
      "name": "tokenId",
      "outputs": [
        {
          "internalType": "uint256",
          "name": "",
          "type": "uint256"
        }
      ],
      "stateMutability": "view",
      "type": "function"
    },
    {
      "inputs": [
        {
          "internalType": "uint256",
          "name": "tokenId",
          "type": "uint256"
        }
      ],
      "name": "tokenURI",
      "outputs": [
        {
          "internalType": "string",
          "name": "URI",
          "type": "string"
        }
      ],
      "stateMutability": "view",
      "type": "function"
    },
    {
      "inputs": [
        {
          "internalType": "address",
          "name": "from",
          "type": "address"
        },
        {
          "internalType": "address",
          "name": "to",
          "type": "address"
        },
        {
          "internalType": "uint256",
          "name": "tokenId",
          "type": "uint256"
        }
      ],
      "name": "transferFrom",
      "outputs": [],
      "stateMutability": "nonpayable",
      "type": "function"
    },
    {
      "inputs": [
        {
          "internalType": "uint256",
          "name": "_tokenId",
          "type": "uint256"
        }
      ],
      "name": "valueToTokenId",
      "outputs": [
        {
          "internalType": "int256",
          "name": "",
          "type": "int256"
        }
      ],
      "stateMutability": "view",
      "type": "function"
    }
  ],
  "transactionHash": "0xc42963af77f14dd5d263e6eb50029e925e81c69afbeef02b8827413c6ab6c574",
  "args": [
    "0x694AA1769357215DE4FAC081bf1f309aDC325306",
    "<?xml version=\"1.0\" standalone=\"no\"?>\n<svg width=\"1024px\" height=\"1024px\" viewBox=\"0 0 1024 1024\" xmlns=\"http://www.w3.org/2000/svg\">\n  <path fill=\"#333\" d=\"M512 64C264.6 64 64 264.6 64 512s200.6 448 448 448 448-200.6 448-448S759.4 64 512 64zm0 820c-205.4 0-372-166.6-372-372s166.6-372 372-372 372 166.6 372 372-166.6 372-372 372z\"/>\n  <path fill=\"#E6E6E6\" d=\"M512 140c-205.4 0-372 166.6-372 372s166.6 372 372 372 372-166.6 372-372-166.6-372-372-372zM288 421a48.01 48.01 0 0 1 96 0 48.01 48.01 0 0 1-96 0zm376 272h-48.1c-4.2 0-7.8-3.2-8.1-7.4C604 636.1 562.5 597 512 597s-92.1 39.1-95.8 88.6c-.3 4.2-3.9 7.4-8.1 7.4H360a8 8 0 0 1-8-8.4c4.4-84.3 74.5-151.6 160-151.6s155.6 67.3 160 151.6a8 8 0 0 1-8 8.4zm24-224a48.01 48.01 0 0 1 0-96 48.01 48.01 0 0 1 0 96z\"/>\n  <path fill=\"#333\" d=\"M288 421a48 48 0 1 0 96 0 48 48 0 1 0-96 0zm224 112c-85.5 0-155.6 67.3-160 151.6a8 8 0 0 0 8 8.4h48.1c4.2 0 7.8-3.2 8.1-7.4 3.7-49.5 45.3-88.6 95.8-88.6s92 39.1 95.8 88.6c.3 4.2 3.9 7.4 8.1 7.4H664a8 8 0 0 0 8-8.4C667.6 600.3 597.5 533 512 533zm128-112a48 48 0 1 0 96 0 48 48 0 1 0-96 0z\"/>\n</svg>",
    "<svg viewBox=\"0 0 200 200\" width=\"400\"  height=\"400\" xmlns=\"http://www.w3.org/2000/svg\">\n  <circle cx=\"100\" cy=\"100\" fill=\"yellow\" r=\"78\" stroke=\"black\" stroke-width=\"3\"/>\n  <g class=\"eyes\">\n    <circle cx=\"61\" cy=\"82\" r=\"12\"/>\n    <circle cx=\"127\" cy=\"82\" r=\"12\"/>\n  </g>\n  <path d=\"m136.81 116.53c.69 26.17-64.11 42-81.52-.73\" style=\"fill:none; stroke: black; stroke-width: 3;\"/>\n</svg>"
  ],
  "numDeployments": 2,
  "solcInputHash": "2110dde5c3bb9b4ce3d1a06aca1c29cd",
  "bytecode": "0x60a06040523480156200001157600080fd5b5060405162003b5138038062003b5183398181016040528101906200003791906200057b565b6040518060400160405280600f81526020017f44796e616d696320535647204e465400000000000000000000000000000000008152506040518060400160405280600381526020017f44534e00000000000000000000000000000000000000000000000000000000008152508160009081620000b4919062000860565b508060019081620000c6919062000860565b5050506000600681905550620000e2826200015260201b60201c565b60079081620000f2919062000860565b5062000104816200015260201b60201c565b6008908162000114919062000860565b508273ffffffffffffffffffffffffffffffffffffffff1660808173ffffffffffffffffffffffffffffffffffffffff168152505050505062000ae6565b606060006040518060400160405280601a81526020017f646174613a696d6167652f7376672b786d6c3b6261736536342c00000000000081525090506000620001c784604051602001620001a7919062000989565b604051602081830303815290604052620001f660201b62000f301760201c565b90508181604051602001620001de929190620009a2565b60405160208183030381529060405292505050919050565b606060008251036200021a576040518060200160405280600081525090506200037e565b600060405180606001604052806040815260200162003b1160409139905060006003600285516200024c9190620009f9565b62000258919062000a63565b600462000266919062000a9b565b90506000602082620002799190620009f9565b67ffffffffffffffff81111562000295576200029462000417565b5b6040519080825280601f01601f191660200182016040528015620002c85781602001600182028036833780820191505090505b509050818152600183018586518101602084015b8183101562000339576003830192508251603f8160121c168501518253600182019150603f81600c1c168501518253600182019150603f8160061c168501518253600182019150603f8116850151825360018201915050620002dc565b600389510660018114620003565760028114620003675762000372565b613d3d60f01b600283035262000372565b603d60f81b60018303525b50505050508093505050505b919050565b6000604051905090565b600080fd5b600080fd5b600073ffffffffffffffffffffffffffffffffffffffff82169050919050565b6000620003c48262000397565b9050919050565b620003d681620003b7565b8114620003e257600080fd5b50565b600081519050620003f681620003cb565b92915050565b600080fd5b600080fd5b6000601f19601f8301169050919050565b7f4e487b7100000000000000000000000000000000000000000000000000000000600052604160045260246000fd5b620004518262000406565b810181811067ffffffffffffffff8211171562000473576200047262000417565b5b80604052505050565b60006200048862000383565b905062000496828262000446565b919050565b600067ffffffffffffffff821115620004b957620004b862000417565b5b620004c48262000406565b9050602081019050919050565b60005b83811015620004f1578082015181840152602081019050620004d4565b60008484015250505050565b6000620005146200050e846200049b565b6200047c565b90508281526020810184848401111562000533576200053262000401565b5b62000540848285620004d1565b509392505050565b600082601f83011262000560576200055f620003fc565b5b815162000572848260208601620004fd565b91505092915050565b6000806000606084860312156200059757620005966200038d565b5b6000620005a786828701620003e5565b935050602084015167ffffffffffffffff811115620005cb57620005ca62000392565b5b620005d98682870162000548565b925050604084015167ffffffffffffffff811115620005fd57620005fc62000392565b5b6200060b8682870162000548565b9150509250925092565b600081519050919050565b7f4e487b7100000000000000000000000000000000000000000000000000000000600052602260045260246000fd5b600060028204905060018216806200066857607f821691505b6020821081036200067e576200067d62000620565b5b50919050565b60008190508160005260206000209050919050565b60006020601f8301049050919050565b600082821b905092915050565b600060088302620006e87fffffffffffffffffffffffffffffffffffffffffffffffffffffffffffffffff82620006a9565b620006f48683620006a9565b95508019841693508086168417925050509392505050565b6000819050919050565b6000819050919050565b6000620007416200073b62000735846200070c565b62000716565b6200070c565b9050919050565b6000819050919050565b6200075d8362000720565b620007756200076c8262000748565b848454620006b6565b825550505050565b600090565b6200078c6200077d565b6200079981848462000752565b505050565b5b81811015620007c157620007b560008262000782565b6001810190506200079f565b5050565b601f8211156200081057620007da8162000684565b620007e58462000699565b81016020851015620007f5578190505b6200080d620008048562000699565b8301826200079e565b50505b505050565b600082821c905092915050565b6000620008356000198460080262000815565b1980831691505092915050565b600062000850838362000822565b9150826002028217905092915050565b6200086b8262000615565b67ffffffffffffffff81111562000887576200088662000417565b5b6200089382546200064f565b620008a0828285620007c5565b600060209050601f831160018114620008d85760008415620008c3578287015190505b620008cf858262000842565b8655506200093f565b601f198416620008e88662000684565b60005b828110156200091257848901518255600182019150602085019450602081019050620008eb565b868310156200093257848901516200092e601f89168262000822565b8355505b6001600288020188555050505b505050505050565b600081905092915050565b60006200095f8262000615565b6200096b818562000947565b93506200097d818560208601620004d1565b80840191505092915050565b600062000997828462000952565b915081905092915050565b6000620009b0828562000952565b9150620009be828462000952565b91508190509392505050565b7f4e487b7100000000000000000000000000000000000000000000000000000000600052601160045260246000fd5b600062000a06826200070c565b915062000a13836200070c565b925082820190508082111562000a2e5762000a2d620009ca565b5b92915050565b7f4e487b7100000000000000000000000000000000000000000000000000000000600052601260045260246000fd5b600062000a70826200070c565b915062000a7d836200070c565b92508262000a905762000a8f62000a34565b5b828204905092915050565b600062000aa8826200070c565b915062000ab5836200070c565b925082820262000ac5816200070c565b9150828204841483151762000adf5762000ade620009ca565b5b5092915050565b60805161300862000b09600039600081816109d80152610bdd01526130086000f3fe608060405234801561001057600080fd5b506004361061012c5760003560e01c80636352211e116100ad578063a728582b11610071578063a728582b14610355578063b88d4fde14610373578063c87b56dd1461038f578063dd3cf8b8146103bf578063e985e9c5146103dd5761012c565b80636352211e1461029d57806370a08231146102cd578063741bef1a146102fd57806395d89b411461031b578063a22cb465146103395761012c565b80631e930812116100f45780631e930812146101e957806323b872dd146102055780633207d93c1461022157806342842e0e146102515780634ea922ea1461026d5761012c565b806301ffc9a71461013157806306fdde0314610161578063081812fc1461017f578063095ea7b3146101af57806317d70f7c146101cb575b600080fd5b61014b60048036038101906101469190611ce7565b61040d565b6040516101589190611d2f565b60405180910390f35b6101696104ef565b6040516101769190611dda565b60405180910390f35b61019960048036038101906101949190611e32565b610581565b6040516101a69190611ea0565b60405180910390f35b6101c960048036038101906101c49190611ee7565b6105c7565b005b6101d36106de565b6040516101e09190611f36565b60405180910390f35b61020360048036038101906101fe9190611f87565b6106e8565b005b61021f600480360381019061021a9190611fb4565b610767565b005b61023b6004803603810190610236919061213c565b6107c7565b6040516102489190611dda565b60405180910390f35b61026b60048036038101906102669190611fb4565b61085a565b005b61028760048036038101906102829190611e32565b61087a565b6040516102949190612194565b60405180910390f35b6102b760048036038101906102b29190611e32565b610897565b6040516102c49190611ea0565b60405180910390f35b6102e760048036038101906102e291906121af565b61091d565b6040516102f49190611f36565b60405180910390f35b6103056109d4565b604051610312919061223b565b60405180910390f35b6103236109fc565b6040516103309190611dda565b60405180910390f35b610353600480360381019061034e9190612282565b610a8e565b005b61035d610aa4565b60405161036a9190611dda565b60405180910390f35b61038d60048036038101906103889190612363565b610b36565b005b6103a960048036038101906103a49190611e32565b610b98565b6040516103b69190611dda565b60405180910390f35b6103c7610e0a565b6040516103d49190611dda565b60405180910390f35b6103f760048036038101906103f291906123e6565b610e9c565b6040516104049190611d2f565b60405180910390f35b60007f80ac58cd000000000000000000000000000000000000000000000000000000007bffffffffffffffffffffffffffffffffffffffffffffffffffffffff1916827bffffffffffffffffffffffffffffffffffffffffffffffffffffffff191614806104d857507f5b5e139f000000000000000000000000000000000000000000000000000000007bffffffffffffffffffffffffffffffffffffffffffffffffffffffff1916827bffffffffffffffffffffffffffffffffffffffffffffffffffffffff1916145b806104e857506104e7826110a8565b5b9050919050565b6060600080546104fe90612455565b80601f016020809104026020016040519081016040528092919081815260200182805461052a90612455565b80156105775780601f1061054c57610100808354040283529160200191610577565b820191906000526020600020905b81548152906001019060200180831161055a57829003601f168201915b5050505050905090565b600061058c82611112565b6004600083815260200190815260200160002060009054906101000a900473ffffffffffffffffffffffffffffffffffffffff169050919050565b60006105d282610897565b90508073ffffffffffffffffffffffffffffffffffffffff168373ffffffffffffffffffffffffffffffffffffffff1603610642576040517f08c379a0000000000000000000000000000000000000000000000000000000008152600401610639906124f8565b60405180910390fd5b8073ffffffffffffffffffffffffffffffffffffffff1661066161115d565b73ffffffffffffffffffffffffffffffffffffffff161480610690575061068f8161068a61115d565b610e9c565b5b6106cf576040517f08c379a00000000000000000000000000000000000000000000000000000000081526004016106c69061258a565b60405180910390fd5b6106d98383611165565b505050565b6000600654905090565b60006006549050816009600083815260200190815260200160002081905550610711338261121e565b60016006600082825461072491906125d9565b92505081905550807f3431855aa1e5d3c46426c18bf530200c661b04a7f8c56945fbc40a94980ed0c48360405161075b9190612194565b60405180910390a25050565b61077861077261115d565b8261123c565b6107b7576040517f08c379a00000000000000000000000000000000000000000000000000000000081526004016107ae9061267f565b60405180910390fd5b6107c28383836112d1565b505050565b606060006040518060400160405280601a81526020017f646174613a696d6167652f7376672b786d6c3b6261736536342c0000000000008152509050600061082d8460405160200161081991906126db565b604051602081830303815290604052610f30565b905081816040516020016108429291906126f2565b60405160208183030381529060405292505050919050565b61087583838360405180602001604052806000815250610b36565b505050565b600060096000838152602001908152602001600020549050919050565b6000806108a3836115ca565b9050600073ffffffffffffffffffffffffffffffffffffffff168173ffffffffffffffffffffffffffffffffffffffff1603610914576040517f08c379a000000000000000000000000000000000000000000000000000000000815260040161090b90612762565b60405180910390fd5b80915050919050565b60008073ffffffffffffffffffffffffffffffffffffffff168273ffffffffffffffffffffffffffffffffffffffff160361098d576040517f08c379a0000000000000000000000000000000000000000000000000000000008152600401610984906127f4565b60405180910390fd5b600360008373ffffffffffffffffffffffffffffffffffffffff1673ffffffffffffffffffffffffffffffffffffffff168152602001908152602001600020549050919050565b60007f0000000000000000000000000000000000000000000000000000000000000000905090565b606060018054610a0b90612455565b80601f0160208091040260200160405190810160405280929190818152602001828054610a3790612455565b8015610a845780601f10610a5957610100808354040283529160200191610a84565b820191906000526020600020905b815481529060010190602001808311610a6757829003601f168201915b5050505050905090565b610aa0610a9961115d565b8383611607565b5050565b606060078054610ab390612455565b80601f0160208091040260200160405190810160405280929190818152602001828054610adf90612455565b8015610b2c5780601f10610b0157610100808354040283529160200191610b2c565b820191906000526020600020905b815481529060010190602001808311610b0f57829003601f168201915b5050505050905090565b610b47610b4161115d565b8361123c565b610b86576040517f08c379a0000000000000000000000000000000000000000000000000000000008152600401610b7d9061267f565b60405180910390fd5b610b9284848484611773565b50505050565b6060610ba3826117cf565b610bd9576040517f6df5edae00000000000000000000000000000000000000000000000000000000815260040160405180910390fd5b60007f000000000000000000000000000000000000000000000000000000000000000073ffffffffffffffffffffffffffffffffffffffff1663feaf968c6040518163ffffffff1660e01b815260040160a060405180830381865afa158015610c46573d6000803e3d6000fd5b505050506040513d601f19601f82011682018060405250810190610c6a9190612880565b505050915050600060078054610c7f90612455565b80601f0160208091040260200160405190810160405280929190818152602001828054610cab90612455565b8015610cf85780601f10610ccd57610100808354040283529160200191610cf8565b820191906000526020600020905b815481529060010190602001808311610cdb57829003601f168201915b505050505090506009600085815260200190815260200160002054821315610da85760088054610d2790612455565b80601f0160208091040260200160405190810160405280929190818152602001828054610d5390612455565b8015610da05780601f10610d7557610100808354040283529160200191610da0565b820191906000526020600020905b815481529060010190602001808311610d8357829003601f168201915b505050505090505b610db0611810565b610de1610dbb6104ef565b83604051602001610dcd929190612ac3565b604051602081830303815290604052610f30565b604051602001610df29291906126f2565b60405160208183030381529060405292505050919050565b606060088054610e1990612455565b80601f0160208091040260200160405190810160405280929190818152602001828054610e4590612455565b8015610e925780601f10610e6757610100808354040283529160200191610e92565b820191906000526020600020905b815481529060010190602001808311610e7557829003601f168201915b5050505050905090565b6000600560008473ffffffffffffffffffffffffffffffffffffffff1673ffffffffffffffffffffffffffffffffffffffff16815260200190815260200160002060008373ffffffffffffffffffffffffffffffffffffffff1673ffffffffffffffffffffffffffffffffffffffff16815260200190815260200160002060009054906101000a900460ff16905092915050565b60606000825103610f52576040518060200160405280600081525090506110a3565b6000604051806060016040528060408152602001612f936040913990506000600360028551610f8191906125d9565b610f8b9190612b42565b6004610f979190612b73565b90506000602082610fa891906125d9565b67ffffffffffffffff811115610fc157610fc0612011565b5b6040519080825280601f01601f191660200182016040528015610ff35781602001600182028036833780820191505090505b509050818152600183018586518101602084015b81831015611062576003830192508251603f8160121c168501518253600182019150603f81600c1c168501518253600182019150603f8160061c168501518253600182019150603f8116850151825360018201915050611007565b60038951066001811461107c576002811461108c57611097565b613d3d60f01b6002830352611097565b603d60f81b60018303525b50505050508093505050505b919050565b60007f01ffc9a7000000000000000000000000000000000000000000000000000000007bffffffffffffffffffffffffffffffffffffffffffffffffffffffff1916827bffffffffffffffffffffffffffffffffffffffffffffffffffffffff1916149050919050565b61111b816117cf565b61115a576040517f08c379a000000000000000000000000000000000000000000000000000000000815260040161115190612762565b60405180910390fd5b50565b600033905090565b816004600083815260200190815260200160002060006101000a81548173ffffffffffffffffffffffffffffffffffffffff021916908373ffffffffffffffffffffffffffffffffffffffff160217905550808273ffffffffffffffffffffffffffffffffffffffff166111d883610897565b73ffffffffffffffffffffffffffffffffffffffff167f8c5be1e5ebec7d5bd14f71427d1e84f3dd0314c0f7b2291e5b200ac8c7c3b92560405160405180910390a45050565b61123882826040518060200160405280600081525061184d565b5050565b60008061124883610897565b90508073ffffffffffffffffffffffffffffffffffffffff168473ffffffffffffffffffffffffffffffffffffffff16148061128a57506112898185610e9c565b5b806112c857508373ffffffffffffffffffffffffffffffffffffffff166112b084610581565b73ffffffffffffffffffffffffffffffffffffffff16145b91505092915050565b8273ffffffffffffffffffffffffffffffffffffffff166112f182610897565b73ffffffffffffffffffffffffffffffffffffffff1614611347576040517f08c379a000000000000000000000000000000000000000000000000000000000815260040161133e90612c27565b60405180910390fd5b600073ffffffffffffffffffffffffffffffffffffffff168273ffffffffffffffffffffffffffffffffffffffff16036113b6576040517f08c379a00000000000000000000000000000000000000000000000000000000081526004016113ad90612cb9565b60405180910390fd5b6113c383838360016118a8565b8273ffffffffffffffffffffffffffffffffffffffff166113e382610897565b73ffffffffffffffffffffffffffffffffffffffff1614611439576040517f08c379a000000000000000000000000000000000000000000000000000000000815260040161143090612c27565b60405180910390fd5b6004600082815260200190815260200160002060006101000a81549073ffffffffffffffffffffffffffffffffffffffff02191690556001600360008573ffffffffffffffffffffffffffffffffffffffff1673ffffffffffffffffffffffffffffffffffffffff168152602001908152602001600020600082825403925050819055506001600360008473ffffffffffffffffffffffffffffffffffffffff1673ffffffffffffffffffffffffffffffffffffffff16815260200190815260200160002060008282540192505081905550816002600083815260200190815260200160002060006101000a81548173ffffffffffffffffffffffffffffffffffffffff021916908373ffffffffffffffffffffffffffffffffffffffff160217905550808273ffffffffffffffffffffffffffffffffffffffff168473ffffffffffffffffffffffffffffffffffffffff167fddf252ad1be2c89b69c2b068fc378daa952ba7f163c4a11628f55a4df523b3ef60405160405180910390a46115c583838360016118ae565b505050565b60006002600083815260200190815260200160002060009054906101000a900473ffffffffffffffffffffffffffffffffffffffff169050919050565b8173ffffffffffffffffffffffffffffffffffffffff168373ffffffffffffffffffffffffffffffffffffffff1603611675576040517f08c379a000000000000000000000000000000000000000000000000000000000815260040161166c90612d25565b60405180910390fd5b80600560008573ffffffffffffffffffffffffffffffffffffffff1673ffffffffffffffffffffffffffffffffffffffff16815260200190815260200160002060008473ffffffffffffffffffffffffffffffffffffffff1673ffffffffffffffffffffffffffffffffffffffff16815260200190815260200160002060006101000a81548160ff0219169083151502179055508173ffffffffffffffffffffffffffffffffffffffff168373ffffffffffffffffffffffffffffffffffffffff167f17307eab39ab6107e8899845ad3d59bd9653f200f220920489ca2b5937696c31836040516117669190611d2f565b60405180910390a3505050565b61177e8484846112d1565b61178a848484846118b4565b6117c9576040517f08c379a00000000000000000000000000000000000000000000000000000000081526004016117c090612db7565b60405180910390fd5b50505050565b60008073ffffffffffffffffffffffffffffffffffffffff166117f1836115ca565b73ffffffffffffffffffffffffffffffffffffffff1614159050919050565b60606040518060400160405280601d81526020017f646174613a6170706c69636174696f6e2f6a736f6e3b6261736536342c000000815250905090565b6118578383611a3b565b61186460008484846118b4565b6118a3576040517f08c379a000000000000000000000000000000000000000000000000000000000815260040161189a90612db7565b60405180910390fd5b505050565b50505050565b50505050565b60006118d58473ffffffffffffffffffffffffffffffffffffffff16611c58565b15611a2e578373ffffffffffffffffffffffffffffffffffffffff1663150b7a026118fe61115d565b8786866040518563ffffffff1660e01b81526004016119209493929190612e2c565b6020604051808303816000875af192505050801561195c57506040513d601f19601f820116820180604052508101906119599190612e8d565b60015b6119de573d806000811461198c576040519150601f19603f3d011682016040523d82523d6000602084013e611991565b606091505b5060008151036119d6576040517f08c379a00000000000000000000000000000000000000000000000000000000081526004016119cd90612db7565b60405180910390fd5b805181602001fd5b63150b7a0260e01b7bffffffffffffffffffffffffffffffffffffffffffffffffffffffff1916817bffffffffffffffffffffffffffffffffffffffffffffffffffffffff191614915050611a33565b600190505b949350505050565b600073ffffffffffffffffffffffffffffffffffffffff168273ffffffffffffffffffffffffffffffffffffffff1603611aaa576040517f08c379a0000000000000000000000000000000000000000000000000000000008152600401611aa190612f06565b60405180910390fd5b611ab3816117cf565b15611af3576040517f08c379a0000000000000000000000000000000000000000000000000000000008152600401611aea90612f72565b60405180910390fd5b611b016000838360016118a8565b611b0a816117cf565b15611b4a576040517f08c379a0000000000000000000000000000000000000000000000000000000008152600401611b4190612f72565b60405180910390fd5b6001600360008473ffffffffffffffffffffffffffffffffffffffff1673ffffffffffffffffffffffffffffffffffffffff16815260200190815260200160002060008282540192505081905550816002600083815260200190815260200160002060006101000a81548173ffffffffffffffffffffffffffffffffffffffff021916908373ffffffffffffffffffffffffffffffffffffffff160217905550808273ffffffffffffffffffffffffffffffffffffffff16600073ffffffffffffffffffffffffffffffffffffffff167fddf252ad1be2c89b69c2b068fc378daa952ba7f163c4a11628f55a4df523b3ef60405160405180910390a4611c546000838360016118ae565b5050565b6000808273ffffffffffffffffffffffffffffffffffffffff163b119050919050565b6000604051905090565b600080fd5b600080fd5b60007fffffffff0000000000000000000000000000000000000000000000000000000082169050919050565b611cc481611c8f565b8114611ccf57600080fd5b50565b600081359050611ce181611cbb565b92915050565b600060208284031215611cfd57611cfc611c85565b5b6000611d0b84828501611cd2565b91505092915050565b60008115159050919050565b611d2981611d14565b82525050565b6000602082019050611d446000830184611d20565b92915050565b600081519050919050565b600082825260208201905092915050565b60005b83811015611d84578082015181840152602081019050611d69565b60008484015250505050565b6000601f19601f8301169050919050565b6000611dac82611d4a565b611db68185611d55565b9350611dc6818560208601611d66565b611dcf81611d90565b840191505092915050565b60006020820190508181036000830152611df48184611da1565b905092915050565b6000819050919050565b611e0f81611dfc565b8114611e1a57600080fd5b50565b600081359050611e2c81611e06565b92915050565b600060208284031215611e4857611e47611c85565b5b6000611e5684828501611e1d565b91505092915050565b600073ffffffffffffffffffffffffffffffffffffffff82169050919050565b6000611e8a82611e5f565b9050919050565b611e9a81611e7f565b82525050565b6000602082019050611eb56000830184611e91565b92915050565b611ec481611e7f565b8114611ecf57600080fd5b50565b600081359050611ee181611ebb565b92915050565b60008060408385031215611efe57611efd611c85565b5b6000611f0c85828601611ed2565b9250506020611f1d85828601611e1d565b9150509250929050565b611f3081611dfc565b82525050565b6000602082019050611f4b6000830184611f27565b92915050565b6000819050919050565b611f6481611f51565b8114611f6f57600080fd5b50565b600081359050611f8181611f5b565b92915050565b600060208284031215611f9d57611f9c611c85565b5b6000611fab84828501611f72565b91505092915050565b600080600060608486031215611fcd57611fcc611c85565b5b6000611fdb86828701611ed2565b9350506020611fec86828701611ed2565b9250506040611ffd86828701611e1d565b9150509250925092565b600080fd5b600080fd5b7f4e487b7100000000000000000000000000000000000000000000000000000000600052604160045260246000fd5b61204982611d90565b810181811067ffffffffffffffff8211171561206857612067612011565b5b80604052505050565b600061207b611c7b565b90506120878282612040565b919050565b600067ffffffffffffffff8211156120a7576120a6612011565b5b6120b082611d90565b9050602081019050919050565b82818337600083830152505050565b60006120df6120da8461208c565b612071565b9050828152602081018484840111156120fb576120fa61200c565b5b6121068482856120bd565b509392505050565b600082601f83011261212357612122612007565b5b81356121338482602086016120cc565b91505092915050565b60006020828403121561215257612151611c85565b5b600082013567ffffffffffffffff8111156121705761216f611c8a565b5b61217c8482850161210e565b91505092915050565b61218e81611f51565b82525050565b60006020820190506121a96000830184612185565b92915050565b6000602082840312156121c5576121c4611c85565b5b60006121d384828501611ed2565b91505092915050565b6000819050919050565b60006122016121fc6121f784611e5f565b6121dc565b611e5f565b9050919050565b6000612213826121e6565b9050919050565b600061222582612208565b9050919050565b6122358161221a565b82525050565b6000602082019050612250600083018461222c565b92915050565b61225f81611d14565b811461226a57600080fd5b50565b60008135905061227c81612256565b92915050565b6000806040838503121561229957612298611c85565b5b60006122a785828601611ed2565b92505060206122b88582860161226d565b9150509250929050565b600067ffffffffffffffff8211156122dd576122dc612011565b5b6122e682611d90565b9050602081019050919050565b6000612306612301846122c2565b612071565b9050828152602081018484840111156123225761232161200c565b5b61232d8482856120bd565b509392505050565b600082601f83011261234a57612349612007565b5b813561235a8482602086016122f3565b91505092915050565b6000806000806080858703121561237d5761237c611c85565b5b600061238b87828801611ed2565b945050602061239c87828801611ed2565b93505060406123ad87828801611e1d565b925050606085013567ffffffffffffffff8111156123ce576123cd611c8a565b5b6123da87828801612335565b91505092959194509250565b600080604083850312156123fd576123fc611c85565b5b600061240b85828601611ed2565b925050602061241c85828601611ed2565b9150509250929050565b7f4e487b7100000000000000000000000000000000000000000000000000000000600052602260045260246000fd5b6000600282049050600182168061246d57607f821691505b6020821081036124805761247f612426565b5b50919050565b7f4552433732313a20617070726f76616c20746f2063757272656e74206f776e6560008201527f7200000000000000000000000000000000000000000000000000000000000000602082015250565b60006124e2602183611d55565b91506124ed82612486565b604082019050919050565b60006020820190508181036000830152612511816124d5565b9050919050565b7f4552433732313a20617070726f76652063616c6c6572206973206e6f7420746f60008201527f6b656e206f776e6572206f7220617070726f76656420666f7220616c6c000000602082015250565b6000612574603d83611d55565b915061257f82612518565b604082019050919050565b600060208201905081810360008301526125a381612567565b9050919050565b7f4e487b7100000000000000000000000000000000000000000000000000000000600052601160045260246000fd5b60006125e482611dfc565b91506125ef83611dfc565b9250828201905080821115612607576126066125aa565b5b92915050565b7f4552433732313a2063616c6c6572206973206e6f7420746f6b656e206f776e6560008201527f72206f7220617070726f76656400000000000000000000000000000000000000602082015250565b6000612669602d83611d55565b91506126748261260d565b604082019050919050565b600060208201905081810360008301526126988161265c565b9050919050565b600081905092915050565b60006126b582611d4a565b6126bf818561269f565b93506126cf818560208601611d66565b80840191505092915050565b60006126e782846126aa565b915081905092915050565b60006126fe82856126aa565b915061270a82846126aa565b91508190509392505050565b7f4552433732313a20696e76616c696420746f6b656e2049440000000000000000600082015250565b600061274c601883611d55565b915061275782612716565b602082019050919050565b6000602082019050818103600083015261277b8161273f565b9050919050565b7f4552433732313a2061646472657373207a65726f206973206e6f74206120766160008201527f6c6964206f776e65720000000000000000000000000000000000000000000000602082015250565b60006127de602983611d55565b91506127e982612782565b604082019050919050565b6000602082019050818103600083015261280d816127d1565b9050919050565b600069ffffffffffffffffffff82169050919050565b61283381612814565b811461283e57600080fd5b50565b6000815190506128508161282a565b92915050565b60008151905061286581611f5b565b92915050565b60008151905061287a81611e06565b92915050565b600080600080600060a0868803121561289c5761289b611c85565b5b60006128aa88828901612841565b95505060206128bb88828901612856565b94505060406128cc8882890161286b565b93505060606128dd8882890161286b565b92505060806128ee88828901612841565b9150509295509295909350565b7f7b226e616d65223a220000000000000000000000000000000000000000000000600082015250565b600061293160098361269f565b915061293c826128fb565b600982019050919050565b7f222c20226465736372697074696f6e223a22416e204e4654207468617420636860008201527f616e676573206261736564206f6e2074686520436861696e6c696e6b2046656560208201527f64222c2000000000000000000000000000000000000000000000000000000000604082015250565b60006129c960448361269f565b91506129d482612947565b604482019050919050565b7f2261747472696275746573223a205b7b2274726169745f74797065223a20226360008201527f6f6f6c6e657373222c202276616c7565223a203130307d5d2c2022696d61676560208201527f223a220000000000000000000000000000000000000000000000000000000000604082015250565b6000612a6160438361269f565b9150612a6c826129df565b604382019050919050565b7f227d000000000000000000000000000000000000000000000000000000000000600082015250565b6000612aad60028361269f565b9150612ab882612a77565b600282019050919050565b6000612ace82612924565b9150612ada82856126aa565b9150612ae5826129bc565b9150612af082612a54565b9150612afc82846126aa565b9150612b0782612aa0565b91508190509392505050565b7f4e487b7100000000000000000000000000000000000000000000000000000000600052601260045260246000fd5b6000612b4d82611dfc565b9150612b5883611dfc565b925082612b6857612b67612b13565b5b828204905092915050565b6000612b7e82611dfc565b9150612b8983611dfc565b9250828202612b9781611dfc565b91508282048414831517612bae57612bad6125aa565b5b5092915050565b7f4552433732313a207472616e736665722066726f6d20696e636f72726563742060008201527f6f776e6572000000000000000000000000000000000000000000000000000000602082015250565b6000612c11602583611d55565b9150612c1c82612bb5565b604082019050919050565b60006020820190508181036000830152612c4081612c04565b9050919050565b7f4552433732313a207472616e7366657220746f20746865207a65726f2061646460008201527f7265737300000000000000000000000000000000000000000000000000000000602082015250565b6000612ca3602483611d55565b9150612cae82612c47565b604082019050919050565b60006020820190508181036000830152612cd281612c96565b9050919050565b7f4552433732313a20617070726f766520746f2063616c6c657200000000000000600082015250565b6000612d0f601983611d55565b9150612d1a82612cd9565b602082019050919050565b60006020820190508181036000830152612d3e81612d02565b9050919050565b7f4552433732313a207472616e7366657220746f206e6f6e20455243373231526560008201527f63656976657220696d706c656d656e7465720000000000000000000000000000602082015250565b6000612da1603283611d55565b9150612dac82612d45565b604082019050919050565b60006020820190508181036000830152612dd081612d94565b9050919050565b600081519050919050565b600082825260208201905092915050565b6000612dfe82612dd7565b612e088185612de2565b9350612e18818560208601611d66565b612e2181611d90565b840191505092915050565b6000608082019050612e416000830187611e91565b612e4e6020830186611e91565b612e5b6040830185611f27565b8181036060830152612e6d8184612df3565b905095945050505050565b600081519050612e8781611cbb565b92915050565b600060208284031215612ea357612ea2611c85565b5b6000612eb184828501612e78565b91505092915050565b7f4552433732313a206d696e7420746f20746865207a65726f2061646472657373600082015250565b6000612ef0602083611d55565b9150612efb82612eba565b602082019050919050565b60006020820190508181036000830152612f1f81612ee3565b9050919050565b7f4552433732313a20746f6b656e20616c7265616479206d696e74656400000000600082015250565b6000612f5c601c83611d55565b9150612f6782612f26565b602082019050919050565b60006020820190508181036000830152612f8b81612f4f565b905091905056fe4142434445464748494a4b4c4d4e4f505152535455565758595a6162636465666768696a6b6c6d6e6f707172737475767778797a303132333435363738392b2fa2646970667358221220bacd2570eb6aed3de7020573cd7697de20c0e8272551461ad718d28b0dcee9cd64736f6c634300081200334142434445464748494a4b4c4d4e4f505152535455565758595a6162636465666768696a6b6c6d6e6f707172737475767778797a303132333435363738392b2f",
  "devdoc": {
    "events": {
      "Approval(address,address,uint256)": {
        "details": "Emitted when `owner` enables `approved` to manage the `tokenId` token."
      },
      "ApprovalForAll(address,address,bool)": {
        "details": "Emitted when `owner` enables or disables (`approved`) `operator` to manage all of its assets."
      },
      "Transfer(address,address,uint256)": {
        "details": "Emitted when `tokenId` token is transferred from `from` to `to`."
      }
    },
    "kind": "dev",
    "methods": {
      "approve(address,uint256)": {
        "details": "See {IERC721-approve}."
      },
      "balanceOf(address)": {
        "details": "See {IERC721-balanceOf}."
      },
      "getApproved(uint256)": {
        "details": "See {IERC721-getApproved}."
      },
      "isApprovedForAll(address,address)": {
        "details": "See {IERC721-isApprovedForAll}."
      },
      "name()": {
        "details": "See {IERC721Metadata-name}."
      },
      "ownerOf(uint256)": {
        "details": "See {IERC721-ownerOf}."
      },
      "safeTransferFrom(address,address,uint256)": {
        "details": "See {IERC721-safeTransferFrom}."
      },
      "safeTransferFrom(address,address,uint256,bytes)": {
        "details": "See {IERC721-safeTransferFrom}."
      },
      "setApprovalForAll(address,bool)": {
        "details": "See {IERC721-setApprovalForAll}."
      },
      "supportsInterface(bytes4)": {
        "details": "See {IERC165-supportsInterface}."
      },
      "symbol()": {
        "details": "See {IERC721Metadata-symbol}."
      },
      "tokenURI(uint256)": {
        "details": "See {IERC721Metadata-tokenURI}."
      },
      "transferFrom(address,address,uint256)": {
        "details": "See {IERC721-transferFrom}."
      }
    },
    "version": 1
  },
  "userdoc": {
    "kind": "user",
    "methods": {},
    "version": 1
  },
  "storageLayout": {
    "storage": [
      {
        "astId": 1296,
        "contract": "contracts/DynamicSvgNft.sol:DynamicSvgNft",
        "label": "_name",
        "offset": 0,
        "slot": "0",
        "type": "t_string_storage"
      },
      {
        "astId": 1298,
        "contract": "contracts/DynamicSvgNft.sol:DynamicSvgNft",
        "label": "_symbol",
        "offset": 0,
        "slot": "1",
        "type": "t_string_storage"
      },
      {
        "astId": 1302,
        "contract": "contracts/DynamicSvgNft.sol:DynamicSvgNft",
        "label": "_owners",
        "offset": 0,
        "slot": "2",
        "type": "t_mapping(t_uint256,t_address)"
      },
      {
        "astId": 1306,
        "contract": "contracts/DynamicSvgNft.sol:DynamicSvgNft",
        "label": "_balances",
        "offset": 0,
        "slot": "3",
        "type": "t_mapping(t_address,t_uint256)"
      },
      {
        "astId": 1310,
        "contract": "contracts/DynamicSvgNft.sol:DynamicSvgNft",
        "label": "_tokenApprovals",
        "offset": 0,
        "slot": "4",
        "type": "t_mapping(t_uint256,t_address)"
      },
      {
        "astId": 1316,
        "contract": "contracts/DynamicSvgNft.sol:DynamicSvgNft",
        "label": "_operatorApprovals",
        "offset": 0,
        "slot": "5",
        "type": "t_mapping(t_address,t_mapping(t_address,t_bool))"
      },
      {
        "astId": 4097,
        "contract": "contracts/DynamicSvgNft.sol:DynamicSvgNft",
        "label": "s_tokenId",
        "offset": 0,
        "slot": "6",
        "type": "t_uint256"
      },
      {
        "astId": 4099,
        "contract": "contracts/DynamicSvgNft.sol:DynamicSvgNft",
        "label": "i_lowSvg",
        "offset": 0,
        "slot": "7",
        "type": "t_string_storage"
      },
      {
        "astId": 4101,
        "contract": "contracts/DynamicSvgNft.sol:DynamicSvgNft",
        "label": "i_highSvg",
        "offset": 0,
        "slot": "8",
        "type": "t_string_storage"
      },
      {
        "astId": 4105,
        "contract": "contracts/DynamicSvgNft.sol:DynamicSvgNft",
        "label": "s_valueToTokenId",
        "offset": 0,
        "slot": "9",
        "type": "t_mapping(t_uint256,t_int256)"
      }
    ],
    "types": {
      "t_address": {
        "encoding": "inplace",
        "label": "address",
        "numberOfBytes": "20"
      },
      "t_bool": {
        "encoding": "inplace",
        "label": "bool",
        "numberOfBytes": "1"
      },
      "t_int256": {
        "encoding": "inplace",
        "label": "int256",
        "numberOfBytes": "32"
      },
      "t_mapping(t_address,t_bool)": {
        "encoding": "mapping",
        "key": "t_address",
        "label": "mapping(address => bool)",
        "numberOfBytes": "32",
        "value": "t_bool"
      },
      "t_mapping(t_address,t_mapping(t_address,t_bool))": {
        "encoding": "mapping",
        "key": "t_address",
        "label": "mapping(address => mapping(address => bool))",
        "numberOfBytes": "32",
        "value": "t_mapping(t_address,t_bool)"
      },
      "t_mapping(t_address,t_uint256)": {
        "encoding": "mapping",
        "key": "t_address",
        "label": "mapping(address => uint256)",
        "numberOfBytes": "32",
        "value": "t_uint256"
      },
      "t_mapping(t_uint256,t_address)": {
        "encoding": "mapping",
        "key": "t_uint256",
        "label": "mapping(uint256 => address)",
        "numberOfBytes": "32",
        "value": "t_address"
      },
      "t_mapping(t_uint256,t_int256)": {
        "encoding": "mapping",
        "key": "t_uint256",
        "label": "mapping(uint256 => int256)",
        "numberOfBytes": "32",
        "value": "t_int256"
      },
      "t_string_storage": {
        "encoding": "bytes",
        "label": "string",
        "numberOfBytes": "32"
      },
      "t_uint256": {
        "encoding": "inplace",
        "label": "uint256",
        "numberOfBytes": "32"
      }
    }
  }
}