{
  "address": "0xc48Bf370FaB50B0a26300aC5fe98E25cfcDb46dd",
  "abi": [
    {
      "inputs": [
        {
          "internalType": "address",
          "name": "_VRFCoordinator",
          "type": "address"
        },
        {
          "internalType": "uint64",
          "name": "_subscriptId",
          "type": "uint64"
        },
        {
          "internalType": "bytes32",
          "name": "_gasLane",
          "type": "bytes32"
        },
        {
          "internalType": "uint32",
          "name": "_callbackGasLimit",
          "type": "uint32"
        },
        {
          "internalType": "string[3]",
          "name": "_dogTokenUris",
          "type": "string[3]"
        },
        {
          "internalType": "uint256",
          "name": "_mintFee",
          "type": "uint256"
        }
      ],
      "stateMutability": "nonpayable",
      "type": "constructor"
    },
    {
      "inputs": [
        {
          "internalType": "address",
          "name": "have",
          "type": "address"
        },
        {
          "internalType": "address",
          "name": "want",
          "type": "address"
        }
      ],
      "name": "OnlyCoordinatorCanFulfill",
      "type": "error"
    },
    {
      "inputs": [
        {
          "internalType": "uint256",
          "name": "",
          "type": "uint256"
        }
      ],
      "name": "RandomIpfsNft__NeedEnoughEth",
      "type": "error"
    },
    {
      "inputs": [],
      "name": "RandomIpfsNft__WithdrawFailed",
      "type": "error"
    },
    {
      "anonymous": false,
      "inputs": [
        {
          "indexed": true,
          "internalType": "address",
          "name": "owner",
          "type": "address"
        },
        {
          "indexed": true,
          "internalType": "address",
          "name": "approved",
          "type": "address"
        },
        {
          "indexed": true,
          "internalType": "uint256",
          "name": "tokenId",
          "type": "uint256"
        }
      ],
      "name": "Approval",
      "type": "event"
    },
    {
      "anonymous": false,
      "inputs": [
        {
          "indexed": true,
          "internalType": "address",
          "name": "owner",
          "type": "address"
        },
        {
          "indexed": true,
          "internalType": "address",
          "name": "operator",
          "type": "address"
        },
        {
          "indexed": false,
          "internalType": "bool",
          "name": "approved",
          "type": "bool"
        }
      ],
      "name": "ApprovalForAll",
      "type": "event"
    },
    {
      "anonymous": false,
      "inputs": [
        {
          "indexed": false,
          "internalType": "enum RandomIpfsNft.Dog",
          "name": "dog",
          "type": "uint8"
        },
        {
          "indexed": false,
          "internalType": "address",
          "name": "minter",
          "type": "address"
        }
      ],
      "name": "NftMinted",
      "type": "event"
    },
    {
      "anonymous": false,
      "inputs": [
        {
          "indexed": true,
          "internalType": "uint256",
          "name": "requestId",
          "type": "uint256"
        },
        {
          "indexed": false,
          "internalType": "address",
          "name": "requester",
          "type": "address"
        }
      ],
      "name": "NftRequested",
      "type": "event"
    },
    {
      "anonymous": false,
      "inputs": [
        {
          "indexed": true,
          "internalType": "address",
          "name": "previousOwner",
          "type": "address"
        },
        {
          "indexed": true,
          "internalType": "address",
          "name": "newOwner",
          "type": "address"
        }
      ],
      "name": "OwnershipTransferred",
      "type": "event"
    },
    {
      "anonymous": false,
      "inputs": [
        {
          "indexed": true,
          "internalType": "address",
          "name": "from",
          "type": "address"
        },
        {
          "indexed": true,
          "internalType": "address",
          "name": "to",
          "type": "address"
        },
        {
          "indexed": true,
          "internalType": "uint256",
          "name": "tokenId",
          "type": "uint256"
        }
      ],
      "name": "Transfer",
      "type": "event"
    },
    {
      "inputs": [],
      "name": "MAX_CHANCE_VALUE",
      "outputs": [
        {
          "internalType": "uint256",
          "name": "",
          "type": "uint256"
        }
      ],
      "stateMutability": "view",
      "type": "function"
    },
    {
      "inputs": [
        {
          "internalType": "address",
          "name": "to",
          "type": "address"
        },
        {
          "internalType": "uint256",
          "name": "tokenId",
          "type": "uint256"
        }
      ],
      "name": "approve",
      "outputs": [],
      "stateMutability": "nonpayable",
      "type": "function"
    },
    {
      "inputs": [
        {
          "internalType": "address",
          "name": "owner",
          "type": "address"
        }
      ],
      "name": "balanceOf",
      "outputs": [
        {
          "internalType": "uint256",
          "name": "",
          "type": "uint256"
        }
      ],
      "stateMutability": "view",
      "type": "function"
    },
    {
      "inputs": [],
      "name": "counter",
      "outputs": [
        {
          "internalType": "uint256",
          "name": "",
          "type": "uint256"
        }
      ],
      "stateMutability": "view",
      "type": "function"
    },
    {
      "inputs": [
        {
          "internalType": "uint256",
          "name": "index",
          "type": "uint256"
        }
      ],
      "name": "dogTokenUris",
      "outputs": [
        {
          "internalType": "string",
          "name": "",
          "type": "string"
        }
      ],
      "stateMutability": "view",
      "type": "function"
    },
    {
      "inputs": [
        {
          "internalType": "uint256",
          "name": "tokenId",
          "type": "uint256"
        }
      ],
      "name": "getApproved",
      "outputs": [
        {
          "internalType": "address",
          "name": "",
          "type": "address"
        }
      ],
      "stateMutability": "view",
      "type": "function"
    },
    {
      "inputs": [],
      "name": "getChanceArray",
      "outputs": [
        {
          "internalType": "uint256[3]",
          "name": "",
          "type": "uint256[3]"
        }
      ],
      "stateMutability": "pure",
      "type": "function"
    },
    {
      "inputs": [
        {
          "internalType": "uint256",
          "name": "target",
          "type": "uint256"
        }
      ],
      "name": "getNftType",
      "outputs": [
        {
          "internalType": "enum RandomIpfsNft.Dog",
          "name": "dog",
          "type": "uint8"
        }
      ],
      "stateMutability": "pure",
      "type": "function"
    },
    {
      "inputs": [
        {
          "internalType": "address",
          "name": "owner",
          "type": "address"
        },
        {
          "internalType": "address",
          "name": "operator",
          "type": "address"
        }
      ],
      "name": "isApprovedForAll",
      "outputs": [
        {
          "internalType": "bool",
          "name": "",
          "type": "bool"
        }
      ],
      "stateMutability": "view",
      "type": "function"
    },
    {
      "inputs": [],
      "name": "mintFee",
      "outputs": [
        {
          "internalType": "uint256",
          "name": "",
          "type": "uint256"
        }
      ],
      "stateMutability": "view",
      "type": "function"
    },
    {
      "inputs": [],
      "name": "name",
      "outputs": [
        {
          "internalType": "string",
          "name": "",
          "type": "string"
        }
      ],
      "stateMutability": "view",
      "type": "function"
    },
    {
      "inputs": [],
      "name": "owner",
      "outputs": [
        {
          "internalType": "address",
          "name": "",
          "type": "address"
        }
      ],
      "stateMutability": "view",
      "type": "function"
    },
    {
      "inputs": [
        {
          "internalType": "uint256",
          "name": "tokenId",
          "type": "uint256"
        }
      ],
      "name": "ownerOf",
      "outputs": [
        {
          "internalType": "address",
          "name": "",
          "type": "address"
        }
      ],
      "stateMutability": "view",
      "type": "function"
    },
    {
      "inputs": [
        {
          "internalType": "uint256",
          "name": "requestId",
          "type": "uint256"
        },
        {
          "internalType": "uint256[]",
          "name": "randomWords",
          "type": "uint256[]"
        }
      ],
      "name": "rawFulfillRandomWords",
      "outputs": [],
      "stateMutability": "nonpayable",
      "type": "function"
    },
    {
      "inputs": [],
      "name": "renounceOwnership",
      "outputs": [],
      "stateMutability": "nonpayable",
      "type": "function"
    },
    {
      "inputs": [],
      "name": "requestNft",
      "outputs": [
        {
          "internalType": "uint256",
          "name": "",
          "type": "uint256"
        }
      ],
      "stateMutability": "payable",
      "type": "function"
    },
    {
      "inputs": [
        {
          "internalType": "address",
          "name": "from",
          "type": "address"
        },
        {
          "internalType": "address",
          "name": "to",
          "type": "address"
        },
        {
          "internalType": "uint256",
          "name": "tokenId",
          "type": "uint256"
        }
      ],
      "name": "safeTransferFrom",
      "outputs": [],
      "stateMutability": "nonpayable",
      "type": "function"
    },
    {
      "inputs": [
        {
          "internalType": "address",
          "name": "from",
          "type": "address"
        },
        {
          "internalType": "address",
          "name": "to",
          "type": "address"
        },
        {
          "internalType": "uint256",
          "name": "tokenId",
          "type": "uint256"
        },
        {
          "internalType": "bytes",
          "name": "data",
          "type": "bytes"
        }
      ],
      "name": "safeTransferFrom",
      "outputs": [],
      "stateMutability": "nonpayable",
      "type": "function"
    },
    {
      "inputs": [
        {
          "internalType": "address",
          "name": "operator",
          "type": "address"
        },
        {
          "internalType": "bool",
          "name": "approved",
          "type": "bool"
        }
      ],
      "name": "setApprovalForAll",
      "outputs": [],
      "stateMutability": "nonpayable",
      "type": "function"
    },
    {
      "inputs": [
        {
          "internalType": "bytes4",
          "name": "interfaceId",
          "type": "bytes4"
        }
      ],
      "name": "supportsInterface",
      "outputs": [
        {
          "internalType": "bool",
          "name": "",
          "type": "bool"
        }
      ],
      "stateMutability": "view",
      "type": "function"
    },
    {
      "inputs": [],
      "name": "symbol",
      "outputs": [
        {
          "internalType": "string",
          "name": "",
          "type": "string"
        }
      ],
      "stateMutability": "view",
      "type": "function"
    },
    {
      "inputs": [
        {
          "internalType": "uint256",
          "name": "tokenId",
          "type": "uint256"
        }
      ],
      "name": "tokenURI",
      "outputs": [
        {
          "internalType": "string",
          "name": "",
          "type": "string"
        }
      ],
      "stateMutability": "view",
      "type": "function"
    },
    {
      "inputs": [
        {
          "internalType": "address",
          "name": "from",
          "type": "address"
        },
        {
          "internalType": "address",
          "name": "to",
          "type": "address"
        },
        {
          "internalType": "uint256",
          "name": "tokenId",
          "type": "uint256"
        }
      ],
      "name": "transferFrom",
      "outputs": [],
      "stateMutability": "nonpayable",
      "type": "function"
    },
    {
      "inputs": [
        {
          "internalType": "address",
          "name": "newOwner",
          "type": "address"
        }
      ],
      "name": "transferOwnership",
      "outputs": [],
      "stateMutability": "nonpayable",
      "type": "function"
    },
    {
      "inputs": [],
      "name": "withdraw",
      "outputs": [],
      "stateMutability": "nonpayable",
      "type": "function"
    }
  ],
  "transactionHash": "0x258a79f6b1ddd58a9ec67279165d5cc09d67a53e38c68f7149bc0b60e4a03684",
  "args": [
    "0x8103B0A8A00be2DDC778e6e7eaa21791Cd364625",
    "768",
    "0x474e34a077df58807dbe9c96d3c009b23b3c6d0cce433e59bbf5b34f823bc56c",
    "500000",
    [
      "ipfs://QmUaM9UCgHFZTWHCoCsSAnFb9fNjsztf4MmR4KSaZ2CUUv",
      "ipfs://QmR58arJotPJQEHPdT2aEp2Mo5ArpKuQs21ohNunAQDfgW",
      "ipfs://QmXaZorJSGdwzyFqwGS23LvU9bhPDxv9Xk6g4DYmuXqp6H"
    ],
    "10000000000000000"
  ],
  "numDeployments": 1,
  "solcInputHash": "08f5f17d160bec65156d2aaf69e5305d",
  "bytecode": "0x6101406040523480156200001257600080fd5b506040516200472d3803806200472d83398181016040528101906200003891906200074f565b6040518060400160405280600f81526020017f52616e646f6d2049504653204e465400000000000000000000000000000000008152506040518060400160405280600381526020017f52494e0000000000000000000000000000000000000000000000000000000000815250878073ffffffffffffffffffffffffffffffffffffffff1660808173ffffffffffffffffffffffffffffffffffffffff1681525050508160009081620000eb919062000a4b565b508060019081620000fd919062000a4b565b5050506200012062000114620001b660201b60201c565b620001be60201b60201c565b8573ffffffffffffffffffffffffffffffffffffffff1660a08173ffffffffffffffffffffffffffffffffffffffff16815250508467ffffffffffffffff1660c08167ffffffffffffffff16815250508360e081815250508263ffffffff166101008163ffffffff168152505081600b906003620001a092919062000284565b5080610120818152505050505050505062000b32565b600033905090565b6000600760009054906101000a900473ffffffffffffffffffffffffffffffffffffffff16905081600760006101000a81548173ffffffffffffffffffffffffffffffffffffffff021916908373ffffffffffffffffffffffffffffffffffffffff1602179055508173ffffffffffffffffffffffffffffffffffffffff168173ffffffffffffffffffffffffffffffffffffffff167f8be0079c531659141344cd1fd0a4f28419497f9722a3daafe3b4186f6b6457e060405160405180910390a35050565b828054828255906000526020600020908101928215620002d1579160200282015b82811115620002d0578251829081620002bf919062000a4b565b5091602001919060010190620002a5565b5b509050620002e09190620002e4565b5090565b5b80821115620003085760008181620002fe91906200030c565b50600101620002e5565b5090565b5080546200031a9062000844565b6000825580601f106200032e57506200034f565b601f0160209004906000526020600020908101906200034e919062000352565b5b50565b5b808211156200036d57600081600090555060010162000353565b5090565b6000604051905090565b600080fd5b600080fd5b600073ffffffffffffffffffffffffffffffffffffffff82169050919050565b6000620003b28262000385565b9050919050565b620003c481620003a5565b8114620003d057600080fd5b50565b600081519050620003e481620003b9565b92915050565b600067ffffffffffffffff82169050919050565b6200040981620003ea565b81146200041557600080fd5b50565b6000815190506200042981620003fe565b92915050565b6000819050919050565b62000444816200042f565b81146200045057600080fd5b50565b600081519050620004648162000439565b92915050565b600063ffffffff82169050919050565b62000485816200046a565b81146200049157600080fd5b50565b600081519050620004a5816200047a565b92915050565b600080fd5b6000601f19601f8301169050919050565b7f4e487b7100000000000000000000000000000000000000000000000000000000600052604160045260246000fd5b620004fb82620004b0565b810181811067ffffffffffffffff821117156200051d576200051c620004c1565b5b80604052505050565b60006200053262000371565b9050620005408282620004f0565b919050565b600067ffffffffffffffff821115620005635762000562620004c1565b5b602082029050919050565b600080fd5b600080fd5b600067ffffffffffffffff821115620005965762000595620004c1565b5b620005a182620004b0565b9050602081019050919050565b60005b83811015620005ce578082015181840152602081019050620005b1565b60008484015250505050565b6000620005f1620005eb8462000578565b62000526565b90508281526020810184848401111562000610576200060f62000573565b5b6200061d848285620005ae565b509392505050565b600082601f8301126200063d576200063c620004ab565b5b81516200064f848260208601620005da565b91505092915050565b60006200066f620006698462000545565b62000526565b905080602084028301858111156200068c576200068b6200056e565b5b835b81811015620006da57805167ffffffffffffffff811115620006b557620006b4620004ab565b5b808601620006c4898262000625565b855260208501945050506020810190506200068e565b5050509392505050565b600082601f830112620006fc57620006fb620004ab565b5b60036200070b84828562000658565b91505092915050565b6000819050919050565b620007298162000714565b81146200073557600080fd5b50565b60008151905062000749816200071e565b92915050565b60008060008060008060c087890312156200076f576200076e6200037b565b5b60006200077f89828a01620003d3565b96505060206200079289828a0162000418565b9550506040620007a589828a0162000453565b9450506060620007b889828a0162000494565b935050608087015167ffffffffffffffff811115620007dc57620007db62000380565b5b620007ea89828a01620006e4565b92505060a0620007fd89828a0162000738565b9150509295509295509295565b600081519050919050565b7f4e487b7100000000000000000000000000000000000000000000000000000000600052602260045260246000fd5b600060028204905060018216806200085d57607f821691505b60208210810362000873576200087262000815565b5b50919050565b60008190508160005260206000209050919050565b60006020601f8301049050919050565b600082821b905092915050565b600060088302620008dd7fffffffffffffffffffffffffffffffffffffffffffffffffffffffffffffffff826200089e565b620008e986836200089e565b95508019841693508086168417925050509392505050565b6000819050919050565b60006200092c62000926620009208462000714565b62000901565b62000714565b9050919050565b6000819050919050565b62000948836200090b565b62000960620009578262000933565b848454620008ab565b825550505050565b600090565b6200097762000968565b620009848184846200093d565b505050565b5b81811015620009ac57620009a06000826200096d565b6001810190506200098a565b5050565b601f821115620009fb57620009c58162000879565b620009d0846200088e565b81016020851015620009e0578190505b620009f8620009ef856200088e565b83018262000989565b50505b505050565b600082821c905092915050565b600062000a206000198460080262000a00565b1980831691505092915050565b600062000a3b838362000a0d565b9150826002028217905092915050565b62000a56826200080a565b67ffffffffffffffff81111562000a725762000a71620004c1565b5b62000a7e825462000844565b62000a8b828285620009b0565b600060209050601f83116001811462000ac3576000841562000aae578287015190505b62000aba858262000a2d565b86555062000b2a565b601f19841662000ad38662000879565b60005b8281101562000afd5784890151825560018201915060208501945060208101905062000ad6565b8683101562000b1d578489015162000b19601f89168262000a0d565b8355505b6001600288020188555050505b505050505050565b60805160a05160c05160e0516101005161012051613b9662000b97600039600081816108c001528181610e960152610ebe01526000610f9d01526000610f5901526000610f7a01526000610f1d0152600081816108e6015261093a0152613b966000f3fe6080604052600436106101665760003560e01c806370a08231116100d1578063a82620d51161008a578063c87b56dd11610064578063c87b56dd1461051d578063da1b9e291461055a578063e985e9c514610585578063f2fde38b146105c257610166565b8063a82620d514610499578063aa152491146104d6578063b88d4fde146104f457610166565b806370a0823114610389578063715018a6146103c65780638035146e146103dd5780638da5cb5b1461041a57806395d89b4114610445578063a22cb4651461047057610166565b806323b872dd1161012357806323b872dd1461028d5780633ccfd60b146102b657806342842e0e146102cd5780635dacf5f4146102f657806361bc221a146103215780636352211e1461034c57610166565b806301ffc9a71461016b57806306fdde03146101a8578063081812fc146101d3578063095ea7b31461021057806313966db5146102395780631fe543e314610264575b600080fd5b34801561017757600080fd5b50610192600480360381019061018d9190612558565b6105eb565b60405161019f91906125a0565b60405180910390f35b3480156101b457600080fd5b506101bd6106cd565b6040516101ca919061264b565b60405180910390f35b3480156101df57600080fd5b506101fa60048036038101906101f591906126a3565b61075f565b6040516102079190612711565b60405180910390f35b34801561021c57600080fd5b5061023760048036038101906102329190612758565b6107a5565b005b34801561024557600080fd5b5061024e6108bc565b60405161025b91906127a7565b60405180910390f35b34801561027057600080fd5b5061028b6004803603810190610286919061290a565b6108e4565b005b34801561029957600080fd5b506102b460048036038101906102af9190612966565b6109a4565b005b3480156102c257600080fd5b506102cb610a04565b005b3480156102d957600080fd5b506102f460048036038101906102ef9190612966565b610ab8565b005b34801561030257600080fd5b5061030b610ad8565b6040516103189190612a64565b60405180910390f35b34801561032d57600080fd5b50610336610b03565b60405161034391906127a7565b60405180910390f35b34801561035857600080fd5b50610373600480360381019061036e91906126a3565b610b0d565b6040516103809190612711565b60405180910390f35b34801561039557600080fd5b506103b060048036038101906103ab9190612a7f565b610b93565b6040516103bd91906127a7565b60405180910390f35b3480156103d257600080fd5b506103db610c4a565b005b3480156103e957600080fd5b5061040460048036038101906103ff91906126a3565b610c5e565b604051610411919061264b565b60405180910390f35b34801561042657600080fd5b5061042f610d0e565b60405161043c9190612711565b60405180910390f35b34801561045157600080fd5b5061045a610d38565b604051610467919061264b565b60405180910390f35b34801561047c57600080fd5b5061049760048036038101906104929190612ad8565b610dca565b005b3480156104a557600080fd5b506104c060048036038101906104bb91906126a3565b610de0565b6040516104cd9190612b8f565b60405180910390f35b6104de610e92565b6040516104eb91906127a7565b60405180910390f35b34801561050057600080fd5b5061051b60048036038101906105169190612c5f565b6110b4565b005b34801561052957600080fd5b50610544600480360381019061053f91906126a3565b611116565b604051610551919061264b565b60405180910390f35b34801561056657600080fd5b5061056f611228565b60405161057c91906127a7565b60405180910390f35b34801561059157600080fd5b506105ac60048036038101906105a79190612ce2565b61122d565b6040516105b991906125a0565b60405180910390f35b3480156105ce57600080fd5b506105e960048036038101906105e49190612a7f565b6112c1565b005b60007f80ac58cd000000000000000000000000000000000000000000000000000000007bffffffffffffffffffffffffffffffffffffffffffffffffffffffff1916827bffffffffffffffffffffffffffffffffffffffffffffffffffffffff191614806106b657507f5b5e139f000000000000000000000000000000000000000000000000000000007bffffffffffffffffffffffffffffffffffffffffffffffffffffffff1916827bffffffffffffffffffffffffffffffffffffffffffffffffffffffff1916145b806106c657506106c582611344565b5b9050919050565b6060600080546106dc90612d51565b80601f016020809104026020016040519081016040528092919081815260200182805461070890612d51565b80156107555780601f1061072a57610100808354040283529160200191610755565b820191906000526020600020905b81548152906001019060200180831161073857829003601f168201915b5050505050905090565b600061076a826113ae565b6004600083815260200190815260200160002060009054906101000a900473ffffffffffffffffffffffffffffffffffffffff169050919050565b60006107b082610b0d565b90508073ffffffffffffffffffffffffffffffffffffffff168373ffffffffffffffffffffffffffffffffffffffff1603610820576040517f08c379a000000000000000000000000000000000000000000000000000000000815260040161081790612df4565b60405180910390fd5b8073ffffffffffffffffffffffffffffffffffffffff1661083f6113f9565b73ffffffffffffffffffffffffffffffffffffffff16148061086e575061086d816108686113f9565b61122d565b5b6108ad576040517f08c379a00000000000000000000000000000000000000000000000000000000081526004016108a490612e86565b60405180910390fd5b6108b78383611401565b505050565b60007f0000000000000000000000000000000000000000000000000000000000000000905090565b7f000000000000000000000000000000000000000000000000000000000000000073ffffffffffffffffffffffffffffffffffffffff163373ffffffffffffffffffffffffffffffffffffffff161461099657337f00000000000000000000000000000000000000000000000000000000000000006040517f1cf993f400000000000000000000000000000000000000000000000000000000815260040161098d929190612ea6565b60405180910390fd5b6109a082826114ba565b5050565b6109b56109af6113f9565b82611659565b6109f4576040517f08c379a00000000000000000000000000000000000000000000000000000000081526004016109eb90612f41565b60405180910390fd5b6109ff8383836116ee565b505050565b610a0c6119e7565b600047905060003373ffffffffffffffffffffffffffffffffffffffff1682604051610a3790612f92565b60006040518083038185875af1925050503d8060008114610a74576040519150601f19603f3d011682016040523d82523d6000602084013e610a79565b606091505b5050905080610ab4576040517f61746da100000000000000000000000000000000000000000000000000000000815260040160405180910390fd5b5050565b610ad3838383604051806020016040528060008152506110b4565b505050565b610ae06124ca565b6040518060600160405280600a8152602001601e81526020016064815250905090565b6000600a54905090565b600080610b1983611a65565b9050600073ffffffffffffffffffffffffffffffffffffffff168173ffffffffffffffffffffffffffffffffffffffff1603610b8a576040517f08c379a0000000000000000000000000000000000000000000000000000000008152600401610b8190612ff3565b60405180910390fd5b80915050919050565b60008073ffffffffffffffffffffffffffffffffffffffff168273ffffffffffffffffffffffffffffffffffffffff1603610c03576040517f08c379a0000000000000000000000000000000000000000000000000000000008152600401610bfa90613085565b60405180910390fd5b600360008373ffffffffffffffffffffffffffffffffffffffff1673ffffffffffffffffffffffffffffffffffffffff168152602001908152602001600020549050919050565b610c526119e7565b610c5c6000611aa2565b565b6060600b8281548110610c7457610c736130a5565b5b906000526020600020018054610c8990612d51565b80601f0160208091040260200160405190810160405280929190818152602001828054610cb590612d51565b8015610d025780601f10610cd757610100808354040283529160200191610d02565b820191906000526020600020905b815481529060010190602001808311610ce557829003601f168201915b50505050509050919050565b6000600760009054906101000a900473ffffffffffffffffffffffffffffffffffffffff16905090565b606060018054610d4790612d51565b80601f0160208091040260200160405190810160405280929190818152602001828054610d7390612d51565b8015610dc05780601f10610d9557610100808354040283529160200191610dc0565b820191906000526020600020905b815481529060010190602001808311610da357829003601f168201915b5050505050905090565b610ddc610dd56113f9565b8383611b68565b5050565b600080600090506000610df1610ad8565b905060005b6003811015610e89578285118015610e2f5750818160038110610e1c57610e1b6130a5565b5b602002015183610e2c9190613103565b85105b15610e5157806002811115610e4757610e46612b18565b5b9350505050610e8d565b818160038110610e6457610e636130a5565b5b602002015183610e749190613103565b92508080610e8190613137565b915050610df6565b5050505b919050565b60007f0000000000000000000000000000000000000000000000000000000000000000341015610f19577f00000000000000000000000000000000000000000000000000000000000000006040517fcd1f526d000000000000000000000000000000000000000000000000000000008152600401610f1091906127a7565b60405180910390fd5b60007f000000000000000000000000000000000000000000000000000000000000000073ffffffffffffffffffffffffffffffffffffffff16635d3b1d307f00000000000000000000000000000000000000000000000000000000000000007f000000000000000000000000000000000000000000000000000000000000000060037f000000000000000000000000000000000000000000000000000000000000000060016040518663ffffffff1660e01b8152600401610fde9594939291906131f7565b6020604051808303816000875af1158015610ffd573d6000803e3d6000fd5b505050506040513d601f19601f82011682018060405250810190611021919061325f565b9050336008600083815260200190815260200160002060006101000a81548173ffffffffffffffffffffffffffffffffffffffff021916908373ffffffffffffffffffffffffffffffffffffffff160217905550807ff873236e6cc0ecc5be1a9a35c95ee5b8d1ac4cc7bfef0cc5060391d6cc98e26b336040516110a59190612711565b60405180910390a28091505090565b6110c56110bf6113f9565b83611659565b611104576040517f08c379a00000000000000000000000000000000000000000000000000000000081526004016110fb90612f41565b60405180910390fd5b61111084848484611cd4565b50505050565b6060611121826113ae565b600060066000848152602001908152602001600020805461114190612d51565b80601f016020809104026020016040519081016040528092919081815260200182805461116d90612d51565b80156111ba5780601f1061118f576101008083540402835291602001916111ba565b820191906000526020600020905b81548152906001019060200180831161119d57829003601f168201915b5050505050905060006111cb611d30565b905060008151036111e0578192505050611223565b6000825111156112155780826040516020016111fd9291906132c8565b60405160208183030381529060405292505050611223565b61121e84611d47565b925050505b919050565b606481565b6000600560008473ffffffffffffffffffffffffffffffffffffffff1673ffffffffffffffffffffffffffffffffffffffff16815260200190815260200160002060008373ffffffffffffffffffffffffffffffffffffffff1673ffffffffffffffffffffffffffffffffffffffff16815260200190815260200160002060009054906101000a900460ff16905092915050565b6112c96119e7565b600073ffffffffffffffffffffffffffffffffffffffff168173ffffffffffffffffffffffffffffffffffffffff1603611338576040517f08c379a000000000000000000000000000000000000000000000000000000000815260040161132f9061335e565b60405180910390fd5b61134181611aa2565b50565b60007f01ffc9a7000000000000000000000000000000000000000000000000000000007bffffffffffffffffffffffffffffffffffffffffffffffffffffffff1916827bffffffffffffffffffffffffffffffffffffffffffffffffffffffff1916149050919050565b6113b781611daf565b6113f6576040517f08c379a00000000000000000000000000000000000000000000000000000000081526004016113ed90612ff3565b60405180910390fd5b50565b600033905090565b816004600083815260200190815260200160002060006101000a81548173ffffffffffffffffffffffffffffffffffffffff021916908373ffffffffffffffffffffffffffffffffffffffff160217905550808273ffffffffffffffffffffffffffffffffffffffff1661147483610b0d565b73ffffffffffffffffffffffffffffffffffffffff167f8c5be1e5ebec7d5bd14f71427d1e84f3dd0314c0f7b2291e5b200ac8c7c3b92560405160405180910390a45050565b60006008600084815260200190815260200160002060009054906101000a900473ffffffffffffffffffffffffffffffffffffffff1690506000600a5490506001600a600082825461150c9190613103565b92505081905550600060648460008151811061152b5761152a6130a5565b5b602002602001015161153d91906133ad565b9050600061154a82610de0565b90506115568484611df0565b61161883600b83600281111561156f5761156e612b18565b5b815481106115805761157f6130a5565b5b90600052602060002001805461159590612d51565b80601f01602080910402602001604051908101604052809291908181526020018280546115c190612d51565b801561160e5780601f106115e35761010080835404028352916020019161160e565b820191906000526020600020905b8154815290600101906020018083116115f157829003601f168201915b5050505050611e0e565b7f8a269f26b688e110e9cbd887d163dab35cae678fa353a0292de532c0cac1ecdc81856040516116499291906133de565b60405180910390a1505050505050565b60008061166583610b0d565b90508073ffffffffffffffffffffffffffffffffffffffff168473ffffffffffffffffffffffffffffffffffffffff1614806116a757506116a6818561122d565b5b806116e557508373ffffffffffffffffffffffffffffffffffffffff166116cd8461075f565b73ffffffffffffffffffffffffffffffffffffffff16145b91505092915050565b8273ffffffffffffffffffffffffffffffffffffffff1661170e82610b0d565b73ffffffffffffffffffffffffffffffffffffffff1614611764576040517f08c379a000000000000000000000000000000000000000000000000000000000815260040161175b90613479565b60405180910390fd5b600073ffffffffffffffffffffffffffffffffffffffff168273ffffffffffffffffffffffffffffffffffffffff16036117d3576040517f08c379a00000000000000000000000000000000000000000000000000000000081526004016117ca9061350b565b60405180910390fd5b6117e08383836001611e7b565b8273ffffffffffffffffffffffffffffffffffffffff1661180082610b0d565b73ffffffffffffffffffffffffffffffffffffffff1614611856576040517f08c379a000000000000000000000000000000000000000000000000000000000815260040161184d90613479565b60405180910390fd5b6004600082815260200190815260200160002060006101000a81549073ffffffffffffffffffffffffffffffffffffffff02191690556001600360008573ffffffffffffffffffffffffffffffffffffffff1673ffffffffffffffffffffffffffffffffffffffff168152602001908152602001600020600082825403925050819055506001600360008473ffffffffffffffffffffffffffffffffffffffff1673ffffffffffffffffffffffffffffffffffffffff16815260200190815260200160002060008282540192505081905550816002600083815260200190815260200160002060006101000a81548173ffffffffffffffffffffffffffffffffffffffff021916908373ffffffffffffffffffffffffffffffffffffffff160217905550808273ffffffffffffffffffffffffffffffffffffffff168473ffffffffffffffffffffffffffffffffffffffff167fddf252ad1be2c89b69c2b068fc378daa952ba7f163c4a11628f55a4df523b3ef60405160405180910390a46119e28383836001611e81565b505050565b6119ef6113f9565b73ffffffffffffffffffffffffffffffffffffffff16611a0d610d0e565b73ffffffffffffffffffffffffffffffffffffffff1614611a63576040517f08c379a0000000000000000000000000000000000000000000000000000000008152600401611a5a90613577565b60405180910390fd5b565b60006002600083815260200190815260200160002060009054906101000a900473ffffffffffffffffffffffffffffffffffffffff169050919050565b6000600760009054906101000a900473ffffffffffffffffffffffffffffffffffffffff16905081600760006101000a81548173ffffffffffffffffffffffffffffffffffffffff021916908373ffffffffffffffffffffffffffffffffffffffff1602179055508173ffffffffffffffffffffffffffffffffffffffff168173ffffffffffffffffffffffffffffffffffffffff167f8be0079c531659141344cd1fd0a4f28419497f9722a3daafe3b4186f6b6457e060405160405180910390a35050565b8173ffffffffffffffffffffffffffffffffffffffff168373ffffffffffffffffffffffffffffffffffffffff1603611bd6576040517f08c379a0000000000000000000000000000000000000000000000000000000008152600401611bcd906135e3565b60405180910390fd5b80600560008573ffffffffffffffffffffffffffffffffffffffff1673ffffffffffffffffffffffffffffffffffffffff16815260200190815260200160002060008473ffffffffffffffffffffffffffffffffffffffff1673ffffffffffffffffffffffffffffffffffffffff16815260200190815260200160002060006101000a81548160ff0219169083151502179055508173ffffffffffffffffffffffffffffffffffffffff168373ffffffffffffffffffffffffffffffffffffffff167f17307eab39ab6107e8899845ad3d59bd9653f200f220920489ca2b5937696c3183604051611cc791906125a0565b60405180910390a3505050565b611cdf8484846116ee565b611ceb84848484611e87565b611d2a576040517f08c379a0000000000000000000000000000000000000000000000000000000008152600401611d2190613675565b60405180910390fd5b50505050565b606060405180602001604052806000815250905090565b6060611d52826113ae565b6000611d5c611d30565b90506000815111611d7c5760405180602001604052806000815250611da7565b80611d868461200e565b604051602001611d979291906132c8565b6040516020818303038152906040525b915050919050565b60008073ffffffffffffffffffffffffffffffffffffffff16611dd183611a65565b73ffffffffffffffffffffffffffffffffffffffff1614159050919050565b611e0a8282604051806020016040528060008152506120dc565b5050565b611e1782611daf565b611e56576040517f08c379a0000000000000000000000000000000000000000000000000000000008152600401611e4d90613707565b60405180910390fd5b80600660008481526020019081526020016000209081611e7691906138d3565b505050565b50505050565b50505050565b6000611ea88473ffffffffffffffffffffffffffffffffffffffff16612137565b15612001578373ffffffffffffffffffffffffffffffffffffffff1663150b7a02611ed16113f9565b8786866040518563ffffffff1660e01b8152600401611ef394939291906139fa565b6020604051808303816000875af1925050508015611f2f57506040513d601f19601f82011682018060405250810190611f2c9190613a5b565b60015b611fb1573d8060008114611f5f576040519150601f19603f3d011682016040523d82523d6000602084013e611f64565b606091505b506000815103611fa9576040517f08c379a0000000000000000000000000000000000000000000000000000000008152600401611fa090613675565b60405180910390fd5b805181602001fd5b63150b7a0260e01b7bffffffffffffffffffffffffffffffffffffffffffffffffffffffff1916817bffffffffffffffffffffffffffffffffffffffffffffffffffffffff191614915050612006565b600190505b949350505050565b60606000600161201d8461215a565b01905060008167ffffffffffffffff81111561203c5761203b6127c7565b5b6040519080825280601f01601f19166020018201604052801561206e5781602001600182028036833780820191505090505b509050600082602001820190505b6001156120d1578080600190039150507f3031323334353637383961626364656600000000000000000000000000000000600a86061a8153600a85816120c5576120c461337e565b5b0494506000850361207c575b819350505050919050565b6120e683836122ad565b6120f36000848484611e87565b612132576040517f08c379a000000000000000000000000000000000000000000000000000000000815260040161212990613675565b60405180910390fd5b505050565b6000808273ffffffffffffffffffffffffffffffffffffffff163b119050919050565b600080600090507a184f03e93ff9f4daa797ed6e38ed64bf6a1f01000000000000000083106121b8577a184f03e93ff9f4daa797ed6e38ed64bf6a1f01000000000000000083816121ae576121ad61337e565b5b0492506040810190505b6d04ee2d6d415b85acef810000000083106121f5576d04ee2d6d415b85acef810000000083816121eb576121ea61337e565b5b0492506020810190505b662386f26fc10000831061222457662386f26fc10000838161221a5761221961337e565b5b0492506010810190505b6305f5e100831061224d576305f5e10083816122435761224261337e565b5b0492506008810190505b61271083106122725761271083816122685761226761337e565b5b0492506004810190505b60648310612295576064838161228b5761228a61337e565b5b0492506002810190505b600a83106122a4576001810190505b80915050919050565b600073ffffffffffffffffffffffffffffffffffffffff168273ffffffffffffffffffffffffffffffffffffffff160361231c576040517f08c379a000000000000000000000000000000000000000000000000000000000815260040161231390613ad4565b60405180910390fd5b61232581611daf565b15612365576040517f08c379a000000000000000000000000000000000000000000000000000000000815260040161235c90613b40565b60405180910390fd5b612373600083836001611e7b565b61237c81611daf565b156123bc576040517f08c379a00000000000000000000000000000000000000000000000000000000081526004016123b390613b40565b60405180910390fd5b6001600360008473ffffffffffffffffffffffffffffffffffffffff1673ffffffffffffffffffffffffffffffffffffffff16815260200190815260200160002060008282540192505081905550816002600083815260200190815260200160002060006101000a81548173ffffffffffffffffffffffffffffffffffffffff021916908373ffffffffffffffffffffffffffffffffffffffff160217905550808273ffffffffffffffffffffffffffffffffffffffff16600073ffffffffffffffffffffffffffffffffffffffff167fddf252ad1be2c89b69c2b068fc378daa952ba7f163c4a11628f55a4df523b3ef60405160405180910390a46124c6600083836001611e81565b5050565b6040518060600160405280600390602082028036833780820191505090505090565b6000604051905090565b600080fd5b600080fd5b60007fffffffff0000000000000000000000000000000000000000000000000000000082169050919050565b61253581612500565b811461254057600080fd5b50565b6000813590506125528161252c565b92915050565b60006020828403121561256e5761256d6124f6565b5b600061257c84828501612543565b91505092915050565b60008115159050919050565b61259a81612585565b82525050565b60006020820190506125b56000830184612591565b92915050565b600081519050919050565b600082825260208201905092915050565b60005b838110156125f55780820151818401526020810190506125da565b60008484015250505050565b6000601f19601f8301169050919050565b600061261d826125bb565b61262781856125c6565b93506126378185602086016125d7565b61264081612601565b840191505092915050565b600060208201905081810360008301526126658184612612565b905092915050565b6000819050919050565b6126808161266d565b811461268b57600080fd5b50565b60008135905061269d81612677565b92915050565b6000602082840312156126b9576126b86124f6565b5b60006126c78482850161268e565b91505092915050565b600073ffffffffffffffffffffffffffffffffffffffff82169050919050565b60006126fb826126d0565b9050919050565b61270b816126f0565b82525050565b60006020820190506127266000830184612702565b92915050565b612735816126f0565b811461274057600080fd5b50565b6000813590506127528161272c565b92915050565b6000806040838503121561276f5761276e6124f6565b5b600061277d85828601612743565b925050602061278e8582860161268e565b9150509250929050565b6127a18161266d565b82525050565b60006020820190506127bc6000830184612798565b92915050565b600080fd5b7f4e487b7100000000000000000000000000000000000000000000000000000000600052604160045260246000fd5b6127ff82612601565b810181811067ffffffffffffffff8211171561281e5761281d6127c7565b5b80604052505050565b60006128316124ec565b905061283d82826127f6565b919050565b600067ffffffffffffffff82111561285d5761285c6127c7565b5b602082029050602081019050919050565b600080fd5b600061288661288184612842565b612827565b905080838252602082019050602084028301858111156128a9576128a861286e565b5b835b818110156128d257806128be888261268e565b8452602084019350506020810190506128ab565b5050509392505050565b600082601f8301126128f1576128f06127c2565b5b8135612901848260208601612873565b91505092915050565b60008060408385031215612921576129206124f6565b5b600061292f8582860161268e565b925050602083013567ffffffffffffffff8111156129505761294f6124fb565b5b61295c858286016128dc565b9150509250929050565b60008060006060848603121561297f5761297e6124f6565b5b600061298d86828701612743565b935050602061299e86828701612743565b92505060406129af8682870161268e565b9150509250925092565b600060039050919050565b600081905092915050565b6000819050919050565b6129e28161266d565b82525050565b60006129f483836129d9565b60208301905092915050565b6000602082019050919050565b612a16816129b9565b612a2081846129c4565b9250612a2b826129cf565b8060005b83811015612a5c578151612a4387826129e8565b9650612a4e83612a00565b925050600181019050612a2f565b505050505050565b6000606082019050612a796000830184612a0d565b92915050565b600060208284031215612a9557612a946124f6565b5b6000612aa384828501612743565b91505092915050565b612ab581612585565b8114612ac057600080fd5b50565b600081359050612ad281612aac565b92915050565b60008060408385031215612aef57612aee6124f6565b5b6000612afd85828601612743565b9250506020612b0e85828601612ac3565b9150509250929050565b7f4e487b7100000000000000000000000000000000000000000000000000000000600052602160045260246000fd5b60038110612b5857612b57612b18565b5b50565b6000819050612b6982612b47565b919050565b6000612b7982612b5b565b9050919050565b612b8981612b6e565b82525050565b6000602082019050612ba46000830184612b80565b92915050565b600080fd5b600067ffffffffffffffff821115612bca57612bc96127c7565b5b612bd382612601565b9050602081019050919050565b82818337600083830152505050565b6000612c02612bfd84612baf565b612827565b905082815260208101848484011115612c1e57612c1d612baa565b5b612c29848285612be0565b509392505050565b600082601f830112612c4657612c456127c2565b5b8135612c56848260208601612bef565b91505092915050565b60008060008060808587031215612c7957612c786124f6565b5b6000612c8787828801612743565b9450506020612c9887828801612743565b9350506040612ca98782880161268e565b925050606085013567ffffffffffffffff811115612cca57612cc96124fb565b5b612cd687828801612c31565b91505092959194509250565b60008060408385031215612cf957612cf86124f6565b5b6000612d0785828601612743565b9250506020612d1885828601612743565b9150509250929050565b7f4e487b7100000000000000000000000000000000000000000000000000000000600052602260045260246000fd5b60006002820490506001821680612d6957607f821691505b602082108103612d7c57612d7b612d22565b5b50919050565b7f4552433732313a20617070726f76616c20746f2063757272656e74206f776e6560008201527f7200000000000000000000000000000000000000000000000000000000000000602082015250565b6000612dde6021836125c6565b9150612de982612d82565b604082019050919050565b60006020820190508181036000830152612e0d81612dd1565b9050919050565b7f4552433732313a20617070726f76652063616c6c6572206973206e6f7420746f60008201527f6b656e206f776e6572206f7220617070726f76656420666f7220616c6c000000602082015250565b6000612e70603d836125c6565b9150612e7b82612e14565b604082019050919050565b60006020820190508181036000830152612e9f81612e63565b9050919050565b6000604082019050612ebb6000830185612702565b612ec86020830184612702565b9392505050565b7f4552433732313a2063616c6c6572206973206e6f7420746f6b656e206f776e6560008201527f72206f7220617070726f76656400000000000000000000000000000000000000602082015250565b6000612f2b602d836125c6565b9150612f3682612ecf565b604082019050919050565b60006020820190508181036000830152612f5a81612f1e565b9050919050565b600081905092915050565b50565b6000612f7c600083612f61565b9150612f8782612f6c565b600082019050919050565b6000612f9d82612f6f565b9150819050919050565b7f4552433732313a20696e76616c696420746f6b656e2049440000000000000000600082015250565b6000612fdd6018836125c6565b9150612fe882612fa7565b602082019050919050565b6000602082019050818103600083015261300c81612fd0565b9050919050565b7f4552433732313a2061646472657373207a65726f206973206e6f74206120766160008201527f6c6964206f776e65720000000000000000000000000000000000000000000000602082015250565b600061306f6029836125c6565b915061307a82613013565b604082019050919050565b6000602082019050818103600083015261309e81613062565b9050919050565b7f4e487b7100000000000000000000000000000000000000000000000000000000600052603260045260246000fd5b7f4e487b7100000000000000000000000000000000000000000000000000000000600052601160045260246000fd5b600061310e8261266d565b91506131198361266d565b9250828201905080821115613131576131306130d4565b5b92915050565b60006131428261266d565b91507fffffffffffffffffffffffffffffffffffffffffffffffffffffffffffffffff8203613174576131736130d4565b5b600182019050919050565b6000819050919050565b6131928161317f565b82525050565b600067ffffffffffffffff82169050919050565b6131b581613198565b82525050565b600061ffff82169050919050565b6131d2816131bb565b82525050565b600063ffffffff82169050919050565b6131f1816131d8565b82525050565b600060a08201905061320c6000830188613189565b61321960208301876131ac565b61322660408301866131c9565b61323360608301856131e8565b61324060808301846131e8565b9695505050505050565b60008151905061325981612677565b92915050565b600060208284031215613275576132746124f6565b5b60006132838482850161324a565b91505092915050565b600081905092915050565b60006132a2826125bb565b6132ac818561328c565b93506132bc8185602086016125d7565b80840191505092915050565b60006132d48285613297565b91506132e08284613297565b91508190509392505050565b7f4f776e61626c653a206e6577206f776e657220697320746865207a65726f206160008201527f6464726573730000000000000000000000000000000000000000000000000000602082015250565b60006133486026836125c6565b9150613353826132ec565b604082019050919050565b600060208201905081810360008301526133778161333b565b9050919050565b7f4e487b7100000000000000000000000000000000000000000000000000000000600052601260045260246000fd5b60006133b88261266d565b91506133c38361266d565b9250826133d3576133d261337e565b5b828206905092915050565b60006040820190506133f36000830185612b80565b6134006020830184612702565b9392505050565b7f4552433732313a207472616e736665722066726f6d20696e636f72726563742060008201527f6f776e6572000000000000000000000000000000000000000000000000000000602082015250565b60006134636025836125c6565b915061346e82613407565b604082019050919050565b6000602082019050818103600083015261349281613456565b9050919050565b7f4552433732313a207472616e7366657220746f20746865207a65726f2061646460008201527f7265737300000000000000000000000000000000000000000000000000000000602082015250565b60006134f56024836125c6565b915061350082613499565b604082019050919050565b60006020820190508181036000830152613524816134e8565b9050919050565b7f4f776e61626c653a2063616c6c6572206973206e6f7420746865206f776e6572600082015250565b60006135616020836125c6565b915061356c8261352b565b602082019050919050565b6000602082019050818103600083015261359081613554565b9050919050565b7f4552433732313a20617070726f766520746f2063616c6c657200000000000000600082015250565b60006135cd6019836125c6565b91506135d882613597565b602082019050919050565b600060208201905081810360008301526135fc816135c0565b9050919050565b7f4552433732313a207472616e7366657220746f206e6f6e20455243373231526560008201527f63656976657220696d706c656d656e7465720000000000000000000000000000602082015250565b600061365f6032836125c6565b915061366a82613603565b604082019050919050565b6000602082019050818103600083015261368e81613652565b9050919050565b7f45524337323155524953746f726167653a2055524920736574206f66206e6f6e60008201527f6578697374656e7420746f6b656e000000000000000000000000000000000000602082015250565b60006136f1602e836125c6565b91506136fc82613695565b604082019050919050565b60006020820190508181036000830152613720816136e4565b9050919050565b60008190508160005260206000209050919050565b60006020601f8301049050919050565b600082821b905092915050565b6000600883026137897fffffffffffffffffffffffffffffffffffffffffffffffffffffffffffffffff8261374c565b613793868361374c565b95508019841693508086168417925050509392505050565b6000819050919050565b60006137d06137cb6137c68461266d565b6137ab565b61266d565b9050919050565b6000819050919050565b6137ea836137b5565b6137fe6137f6826137d7565b848454613759565b825550505050565b600090565b613813613806565b61381e8184846137e1565b505050565b5b818110156138425761383760008261380b565b600181019050613824565b5050565b601f8211156138875761385881613727565b6138618461373c565b81016020851015613870578190505b61388461387c8561373c565b830182613823565b50505b505050565b600082821c905092915050565b60006138aa6000198460080261388c565b1980831691505092915050565b60006138c38383613899565b9150826002028217905092915050565b6138dc826125bb565b67ffffffffffffffff8111156138f5576138f46127c7565b5b6138ff8254612d51565b61390a828285613846565b600060209050601f83116001811461393d576000841561392b578287015190505b61393585826138b7565b86555061399d565b601f19841661394b86613727565b60005b828110156139735784890151825560018201915060208501945060208101905061394e565b86831015613990578489015161398c601f891682613899565b8355505b6001600288020188555050505b505050505050565b600081519050919050565b600082825260208201905092915050565b60006139cc826139a5565b6139d681856139b0565b93506139e68185602086016125d7565b6139ef81612601565b840191505092915050565b6000608082019050613a0f6000830187612702565b613a1c6020830186612702565b613a296040830185612798565b8181036060830152613a3b81846139c1565b905095945050505050565b600081519050613a558161252c565b92915050565b600060208284031215613a7157613a706124f6565b5b6000613a7f84828501613a46565b91505092915050565b7f4552433732313a206d696e7420746f20746865207a65726f2061646472657373600082015250565b6000613abe6020836125c6565b9150613ac982613a88565b602082019050919050565b60006020820190508181036000830152613aed81613ab1565b9050919050565b7f4552433732313a20746f6b656e20616c7265616479206d696e74656400000000600082015250565b6000613b2a601c836125c6565b9150613b3582613af4565b602082019050919050565b60006020820190508181036000830152613b5981613b1d565b905091905056fea2646970667358221220706d172fa3638c1cc222e122479d4e8fee627788f37727f17122b423857ab5a064736f6c63430008120033",
  "devdoc": {
    "events": {
      "Approval(address,address,uint256)": {
        "details": "Emitted when `owner` enables `approved` to manage the `tokenId` token."
      },
      "ApprovalForAll(address,address,bool)": {
        "details": "Emitted when `owner` enables or disables (`approved`) `operator` to manage all of its assets."
      },
      "Transfer(address,address,uint256)": {
        "details": "Emitted when `tokenId` token is transferred from `from` to `to`."
      }
    },
    "kind": "dev",
    "methods": {
      "approve(address,uint256)": {
        "details": "See {IERC721-approve}."
      },
      "balanceOf(address)": {
        "details": "See {IERC721-balanceOf}."
      },
      "getApproved(uint256)": {
        "details": "See {IERC721-getApproved}."
      },
      "isApprovedForAll(address,address)": {
        "details": "See {IERC721-isApprovedForAll}."
      },
      "name()": {
        "details": "See {IERC721Metadata-name}."
      },
      "owner()": {
        "details": "Returns the address of the current owner."
      },
      "ownerOf(uint256)": {
        "details": "See {IERC721-ownerOf}."
      },
      "renounceOwnership()": {
        "details": "Leaves the contract without owner. It will not be possible to call `onlyOwner` functions anymore. Can only be called by the current owner. NOTE: Renouncing ownership will leave the contract without an owner, thereby removing any functionality that is only available to the owner."
      },
      "safeTransferFrom(address,address,uint256)": {
        "details": "See {IERC721-safeTransferFrom}."
      },
      "safeTransferFrom(address,address,uint256,bytes)": {
        "details": "See {IERC721-safeTransferFrom}."
      },
      "setApprovalForAll(address,bool)": {
        "details": "See {IERC721-setApprovalForAll}."
      },
      "supportsInterface(bytes4)": {
        "details": "See {IERC165-supportsInterface}."
      },
      "symbol()": {
        "details": "See {IERC721Metadata-symbol}."
      },
      "tokenURI(uint256)": {
        "details": "See {IERC721Metadata-tokenURI}."
      },
      "transferFrom(address,address,uint256)": {
        "details": "See {IERC721-transferFrom}."
      },
      "transferOwnership(address)": {
        "details": "Transfers ownership of the contract to a new account (`newOwner`). Can only be called by the current owner."
      }
    },
    "version": 1
  },
  "userdoc": {
    "kind": "user",
    "methods": {},
    "version": 1
  },
  "storageLayout": {
    "storage": [
      {
        "astId": 338,
        "contract": "contracts/RandomIpfsNft.sol:RandomIpfsNft",
        "label": "_name",
        "offset": 0,
        "slot": "0",
        "type": "t_string_storage"
      },
      {
        "astId": 340,
        "contract": "contracts/RandomIpfsNft.sol:RandomIpfsNft",
        "label": "_symbol",
        "offset": 0,
        "slot": "1",
        "type": "t_string_storage"
      },
      {
        "astId": 344,
        "contract": "contracts/RandomIpfsNft.sol:RandomIpfsNft",
        "label": "_owners",
        "offset": 0,
        "slot": "2",
        "type": "t_mapping(t_uint256,t_address)"
      },
      {
        "astId": 348,
        "contract": "contracts/RandomIpfsNft.sol:RandomIpfsNft",
        "label": "_balances",
        "offset": 0,
        "slot": "3",
        "type": "t_mapping(t_address,t_uint256)"
      },
      {
        "astId": 352,
        "contract": "contracts/RandomIpfsNft.sol:RandomIpfsNft",
        "label": "_tokenApprovals",
        "offset": 0,
        "slot": "4",
        "type": "t_mapping(t_uint256,t_address)"
      },
      {
        "astId": 358,
        "contract": "contracts/RandomIpfsNft.sol:RandomIpfsNft",
        "label": "_operatorApprovals",
        "offset": 0,
        "slot": "5",
        "type": "t_mapping(t_address,t_mapping(t_address,t_bool))"
      },
      {
        "astId": 1386,
        "contract": "contracts/RandomIpfsNft.sol:RandomIpfsNft",
        "label": "_tokenURIs",
        "offset": 0,
        "slot": "6",
        "type": "t_mapping(t_uint256,t_string_storage)"
      },
      {
        "astId": 207,
        "contract": "contracts/RandomIpfsNft.sol:RandomIpfsNft",
        "label": "_owner",
        "offset": 0,
        "slot": "7",
        "type": "t_address"
      },
      {
        "astId": 3317,
        "contract": "contracts/RandomIpfsNft.sol:RandomIpfsNft",
        "label": "s_requestIdToSender",
        "offset": 0,
        "slot": "8",
        "type": "t_mapping(t_uint256,t_address)"
      },
      {
        "astId": 3322,
        "contract": "contracts/RandomIpfsNft.sol:RandomIpfsNft",
        "label": "s_tokenIdToDog",
        "offset": 0,
        "slot": "9",
        "type": "t_mapping(t_uint256,t_enum(Dog)3298)"
      },
      {
        "astId": 3324,
        "contract": "contracts/RandomIpfsNft.sol:RandomIpfsNft",
        "label": "s_counter",
        "offset": 0,
        "slot": "10",
        "type": "t_uint256"
      },
      {
        "astId": 3330,
        "contract": "contracts/RandomIpfsNft.sol:RandomIpfsNft",
        "label": "s_dogTokenUris",
        "offset": 0,
        "slot": "11",
        "type": "t_array(t_string_storage)dyn_storage"
      }
    ],
    "types": {
      "t_address": {
        "encoding": "inplace",
        "label": "address",
        "numberOfBytes": "20"
      },
      "t_array(t_string_storage)dyn_storage": {
        "base": "t_string_storage",
        "encoding": "dynamic_array",
        "label": "string[]",
        "numberOfBytes": "32"
      },
      "t_bool": {
        "encoding": "inplace",
        "label": "bool",
        "numberOfBytes": "1"
      },
      "t_enum(Dog)3298": {
        "encoding": "inplace",
        "label": "enum RandomIpfsNft.Dog",
        "numberOfBytes": "1"
      },
      "t_mapping(t_address,t_bool)": {
        "encoding": "mapping",
        "key": "t_address",
        "label": "mapping(address => bool)",
        "numberOfBytes": "32",
        "value": "t_bool"
      },
      "t_mapping(t_address,t_mapping(t_address,t_bool))": {
        "encoding": "mapping",
        "key": "t_address",
        "label": "mapping(address => mapping(address => bool))",
        "numberOfBytes": "32",
        "value": "t_mapping(t_address,t_bool)"
      },
      "t_mapping(t_address,t_uint256)": {
        "encoding": "mapping",
        "key": "t_address",
        "label": "mapping(address => uint256)",
        "numberOfBytes": "32",
        "value": "t_uint256"
      },
      "t_mapping(t_uint256,t_address)": {
        "encoding": "mapping",
        "key": "t_uint256",
        "label": "mapping(uint256 => address)",
        "numberOfBytes": "32",
        "value": "t_address"
      },
      "t_mapping(t_uint256,t_enum(Dog)3298)": {
        "encoding": "mapping",
        "key": "t_uint256",
        "label": "mapping(uint256 => enum RandomIpfsNft.Dog)",
        "numberOfBytes": "32",
        "value": "t_enum(Dog)3298"
      },
      "t_mapping(t_uint256,t_string_storage)": {
        "encoding": "mapping",
        "key": "t_uint256",
        "label": "mapping(uint256 => string)",
        "numberOfBytes": "32",
        "value": "t_string_storage"
      },
      "t_string_storage": {
        "encoding": "bytes",
        "label": "string",
        "numberOfBytes": "32"
      },
      "t_uint256": {
        "encoding": "inplace",
        "label": "uint256",
        "numberOfBytes": "32"
      }
    }
  }
}